:020000041000EA
:1000000000B5324B212058609868022188439860DF
:10001000D860186158612E4B002199600221596106
:100020000121F02299502B49196001219960352056
:1000300000F044F80222904214D00621196600F024
:1000400034F8196E01211966002018661A6600F04E
:100050002CF8196E196E196E052000F02FF8012189
:100060000842F9D1002199601B49196000215960AB
:100070001A491B48016001219960EB211966A021F2
:10008000196600F012F800219960164914480160C1
:100090000121996001BC002800D000471248134993
:1000A000086003C880F30888084703B5996A0420EC
:1000B0000142FBD001200142F8D103BD02B5186610
:1000C0001866FFF7F2FF186E186E02BD00000240BE
:1000D000000000180000070000035F00212200005C
:1000E000F4000018222000A00001001008ED00E03C
:1000F00000000000000000000000000074B24E7A12
:1001000000200420F7010010C3010010C5010010F9
:10011000C1010010C1010010C1010010C101001097
:10012000C1010010C1010010C1010010C701001081
:10013000C1010010C1010010C9010010CB01001065
:10014000CD010010CD010010CD010010CD01001037
:10015000CD010010CD010010CD010010CD01001027
:10016000CD010010CD010010CD010010CD01001017
:10017000CD010010CD010010CD010010CD01001007
:10018000CD010010CD010010CD010010CD010010F7
:10019000CD010010CD010010CD010010CD010010E7
:1001A000CD010010CD010010CD010010CD010010D7
:1001B000CD010010CD010010CD010010CD010010C7
:1001C00000BE00BE00BE00BE00BE00BEEFF3058054
:1001D000103800BEF2EB8871A8B10010E8B1001031
:1001E0003402001090A31AE700201F49086006C8D7
:1001F00081F3088810471D48006800282FD10DA4FE
:100200000ECC002902D000F012F8F9E71849194A7B
:10021000002000E001C19142FCD1174988471749ED
:1002200088471749884700BEFDE701C901C29A42C5
:10023000FBD37047E8B10010C0000020601600201A
:1002400088C70010000004200000042088C70010A8
:10025000001004200010042000000000704709482E
:1002600004F09EFC0047000008ED00E0000000D014
:10027000601600209825002029390010A1050010E3
:10028000E53800105756000006005250ABB36053DB
:1002900028A9001006005250861C030238A900103D
:1002A000060052505422A29D48A900100500525049
:1002B000DE65F46888C70010F8B5C04610B5064C76
:1002C0002378002B07D1054B002B02D0044800E017
:1002D00000BF0123237010BD101800200000000093
:1002E00050970010044B10B5002B03D0034904486D
:1002F00000E000BF10BDC046000000001418002040
:1003000050970010F0B5CE46474680B58FB0002319
:100310000293039317E1032B01D18E4B99460023DF
:100320008D4A13608D4A13608D4A137002F086FC6B
:100330000090019102F082FC06000F0000220023D1
:10034000484600F0E9FF874B19685A680491059206
:100350004346DB0006A88446634419605A601EE0E9
:100360000F230E221321122001F066F87E4B9946CE
:10037000D5E77D4B9946D2E77A4B1A6802925B68C3
:100380000393049A059B484600F0C6FF26002F0001
:10039000009A019BA41A9D41002D14D110D002F0A7
:1003A0004DFC04000D0002000B00921BBB4111002C
:1003B000002BE1D1ECD1C8239B009942E8D3DBE7C5
:1003C0006A4B9C42EBD9674B1C685D68029A039BA1
:1003D0002000290004F073FE0E0002900391002219
:1003E00000230298310004F0DDFE002832D1002203
:1003F0005F4B029F3800039E310004F0D9FE0028B5
:1004000007D100225B4B3800310004F0E1FE0028E8
:1004100027D04346DB005849C918002200230A6050
:100420004B6001239C46E0444346032B7ADC434661
:10043000022B95D000DD6EE7002B9AD0012B00D067
:100440006DE70D230C221521142000F0F5FF414B20
:10045000994664E73300802212069446634403936E
:10046000C5E743469B00454A9A58454B9A4234DDBE
:1004700022002B000020434904F021FE04000D005F
:10048000384B1C605D60344B186804F0B9FE020004
:100490000B0004F01DFE06000F0000223A4B200066
:1004A000290004F01EFE02000B003000390004F0A9
:1004B0000FFE364A364B04F032FE0022354B04F074
:1004C0002EFE0C004346DB002B49C9180200802099
:1004D000000623180A604B60A3E71F4B186804F05E
:1004E0008FFE02000B0004F0F3FD06000F00002257
:1004F000254B2000290004F0F4FD02000B00300021
:10050000390004F0E5FD214A214B04F008FE0022E9
:10051000204B04F004FE4346DA00174B9B1818608A
:1005200059607EE7152314220D210C2000F084FF72
:10053000132312220F210E2000F07EFF01F004F899
:10054000154809F07DF8154809F0B2F800239846DF
:100550006AE7C046F00D00201C2300200C1F00207D
:100560009225002060160020E80D0020A761000001
:100570000000F03F00607640F0170020800C002063
:10058000EE02000000807640008066407A008BFC1E
:10059000FA21094000004440402400204824002063
:1005A000D0B5DE4657464E464446D0B5A4B005F019
:1005B00077FD01220021B54801F0F2FC0122012162
:1005C000B34801F0EDFC00F06DFDB24802F082FA94
:1005D00000F0EAFD00F044FF1F210F2001F0CCF8ED
:1005E0001F210E2001F0C8F803211A2001F0C4F8E1
:1005F00003211B2001F0C0F801F06EF81F211A2022
:1006000001F0BAF81F211B2001F0B6F803210F20DA
:1006100001F0B2F803210E2001F0AEF80921082004
:1006200000F09EF99C4808F0C5F90023219322931D
:1006300023931E931F9320931B931C931D93189336
:1006400019931A9315931693179302F0F7FA42230E
:1006500004AA9446634400221A80002300240893CD
:1006600009940693079400239846D4E09A0015A9AC
:1006700050581EA950500133022BF7DD06980799F8
:1006800004F006FE2390002609E0B7000AABF858F4
:1006900021ABF95805F06BF915ABD8510136022E94
:1006A000F3DD1BAE1B9B18931C9B19931D9B1A9388
:1006B000009618AB21AA1EA915A800F0A7FA10AB46
:1006C0000DAA21A9300000F085F90027012F0DDCCB
:1006D000BC000DABE058714905F069F9011C21AE71
:1006E000A05905F049F930510137EFE7119B9946C0
:1006F000129B9A46139B9B46109805F09DF90600A5
:100700000F00584605F098F904900591504605F001
:1007100093F902900391484605F08EF900900191FB
:1007200032003B005E4805F0AFFC002600E00136D9
:10073000032E13DCB30010AA9F585A49381C05F049
:100740006DF90028F3D05849381C05F061F90028EC
:10075000EDD0B30010AA00219950E8E7119B99460B
:10076000129B9A46139B9B46109805F065F906006C
:100770000F00584605F060F904900591504605F0C9
:100780005BF902900391484605F056F900900191FB
:1007900032003B00424805F077FC109805F04CF918
:1007A000424E30607160129805F046F9B060F16019
:1007B000119805F041F930617161139805F03CF929
:1007C000B061F1611F210F2000F0D6FF1F210E2024
:1007D00000F0D2FF03211B2000F0CEFF03211A20DE
:1007E00000F0CAFF422004AB9C46604400F0A4FF26
:1007F0001F211B2000F0C0FF1F211A2000F0BCFFAA
:1008000003210F2000F0B8FF03210E2000F0B4FFF9
:100810001F4808F015FF1D4808F04AFF00F060FC73
:10082000234B986A4246801A9B6A9846422304AA40
:100830009446634400229A5E13003C339BB2782BAB
:1008400012D9504304F0DCFC1A4A1B4B04F049FC5B
:1008500002000B000898099904F03AFC03000C0010
:10086000069307940893099402F0E8F9219805F09B
:10087000E3F8124A124B04F022FC04F009FD0A903E
:1008800000230B930C930023F6E6C046402400207F
:1008900048240020B80B0000050300106F12833AB3
:1008A00050970010000016C3000016436817002080
:1008B0000040054000007042FAF9FB419A9999996D
:1008C0009999B93F70B582B0142005F049FA040037
:1008D0001E4B802292031A600BE06B46DA790A2ADB
:1008E0001CD01B490B78D8B20133DBB20B70194B0B
:1008F0001A54194B9B6910210A001A4019421FD142
:100900006B46D91D002AE8D1134B9B69DB06FBD44B
:10091000114B1B680B7001320131F3E70C4D2B7842
:10092000DBB20C490026CE54200008F01DFD21004A
:100930000A4805F0A9FB200000F0E8FA2E70D8E77D
:10094000200005F02BFA02B070BDC04680E200E046
:100950008C250020B81D0020008003406097001007
:1009600070B506000D009621174C8901200002F099
:100970003BFD002301220821200002F003FD00219D
:10098000200002F015FD0221300000F0F5FE0221EA
:10099000280000F0F1FE642002F09CF85023A363CD
:1009A000636B38221A40094980235B010B431A60AC
:1009B0000749152001F040F80121152001F012F837
:1009C000642002F087F870BD00800340348003404B
:1009D000C5080010F0B5DE4657464E464546E0B520
:1009E0009BB0040092461D008E68301C05F02EF866
:1009F00081461190301C05F03DF8009003008022E4
:100A00001206944663449B4612930023139314905A
:100A10004A461592169317931893FE239B05199334
:100A2000744B98460593744F0697744E0796089337
:100A300009930A960B970C930D960E970F971096A5
:100A4000191C206804F0B3FF0190391C606804F0A1
:100A5000AEFF011C019804F08FFF0190311CA068CB
:100A600004F0A5FF011C019804F086FF01902860A6
:100A70004146206804F09BFF02904146606804F004
:100A800096FF011C029804F077FF0290311CA068C9
:100A900004F08DFF011C029804F06EFF0290686064
:100AA000391C206804F083FF03904146606804F01D
:100AB0007EFF011C039804F05FFF8046311CA06894
:100AC00004F075FF011C404604F056FF8046A86004
:100AD000391C206804F06BFF0390391C606804F037
:100AE00066FF011C039804F047FF071C311CA06837
:100AF00004F05DFF011C381C04F03EFF061CE8609A
:100B00003F49019804F053FF28603D49029804F0E2
:100B10004EFF68603A49404604F049FFA8603849F2
:100B2000301C04F044FFE8600027A0462C0008E0D9
:100B30003449281C04F06CFF002801D0314B33608D
:100B40000137032F0BDCBE00A61935682E49281C7F
:100B500004F064FF0028EBD02B4B3360F0E74446F1
:100B60002168484604F023FF051C6168584604F0DC
:100B70001EFF011C281C04F0FFFE051C0021A068BC
:100B800004F015FF011C281C04F0F6FE5346186003
:100B90002168009804F00BFF051C6168484604F0CA
:100BA00006FF011C281C04F0E7FE051C0021A068BC
:100BB00004F0FDFE011C281C04F0DEFE53465860C4
:100BC0000021206804F0F3FE051C0021606804F099
:100BD000EEFE011C281C04F0CFFEA16804F0CCFE40
:100BE000534698601BB0F0BCBB46B246A946A0462F
:100BF000F0BDC0462E46E2C02E46E2400000204135
:100C00000000A040000048C300004843F0B5DE46A5
:100C100057464E464546E0B59BB08246894601930D
:100C20009468201C04F012FF071C1190201C04F093
:100C300021FF804680231B0643449B4612930023DA
:100C4000139314901597169317931893FE239B05EF
:100C50001993002518E0AC00019B1E5952495346D8
:100C6000185904F0A4FE011C301C04F085FE061C7B
:100C70004E494B46185904F09AFE011C301C04F0F2
:100C80007BFE0EAB18510135022DE4DD059743467E
:100C90000693002407945B46089309970A940B94E3
:100CA0000C94FE239B050D930E9B9946191C381C32
:100CB00004F07DFE051C0F9E311C584604F077FEA3
:100CC000011C281C04F058FE8346109B9A46211CE8
:100CD000181C04F06CFE051C011C584604F04CFE68
:100CE00002904946404604F062FE8046311C381CA2
:100CF00004F05DFE011C404604F03EFE011C281C71
:100D000004F03AFE0390211C484604F050FE051CF6
:100D1000211C301C04F04BFE011C281C04F02CFE8E
:100D2000011C504604F028FE051C049000240AE033
:100D30001F49301C04F06CFE002814D0A3001C4A8C
:100D40002499CA500134012C11DCA30002AA9E5838
:100D50001849301C04F062FE0028E9D0A300154AAF
:100D60002499CA50EEE7A300249AD650EAE7124924
:100D7000281C04F053FE002809D00F4B249A9360DE
:100D80001BB0F0BCBB46B246A946A046F0BD0B491D
:100D9000281C04F03DFE002803D0084B249A9360E1
:100DA000EEE7249B9D60EBE700001643000048C27D
:100DB000000020C100002041C3F5C83FC3F5C8BFF3
:100DC000F0B587B0400807240440072935D92148E9
:100DD00003F012FF8446204B984234D86B46002122
:100DE00000915960996010225A601C4A9A6003AAC7
:100DF0001500C1CBC1C5FA231B0104933023039D09
:100E00009D43039563461804000C0590144DA00003
:100E100003199B00595103199B00AC466344996028
:100E2000D96005991961049A5A600123039A134302
:100E300000198000435107B0F0BD0A4B0A4A122145
:100E40000A4802F053FD0A4B074A1621074802F0F0
:100E50004DFDC04620A10700FEFF0000FFFF00007F
:100E60000000054074970010F49700107C97001064
:100E7000D097001070B50600042100F07DFC7308C7
:100E800007251D4001231C003440AA00521992007E
:100E900019498C466244334226D01021CD239B0051
:100EA0008B40002C22D01549106843400B40802114
:100EB00049010A431360124801F00CFEAB005B19B4
:100EC0009B000D4A94466344002C11D010210D4A1A
:100ED0008A40002C0ED00949186842400A408021FF
:100EE00049010B431A6070BD2100D7E70649DBE7D3
:100EF0002100ECE70449EFE70C0005400000FFFF8C
:100F0000B80B0000EE020000FFFF000003787A2B10
:100F100009D00378732B25D00378612B40D0037858
:100F2000622B5CD070473D4B1A68C3239B005A402C
:100F30001204120C3A490A603A4A12685A401204E2
:100F4000120C39490A60394A12685A401204120CCC
:100F500037490A60374A126853401B041B0C364A53
:100F60001360D6E72D4B1A68344B5A401204120C0A
:100F70002B490A602B4A12685A401204120C2A4963
:100F80000A602A4A12685A401204120C28490A6060
:100F9000284A126853401B041B0C274A1360BBE706
:100FA0001E4B1A68AA239B005A401204120C1C49BB
:100FB0000A601C4A12685A401204120C1A490A604C
:100FC0001A4A12685A401204120C19490A60194A46
:100FD000126853401B041B0C174A13609FE70F4B0A
:100FE0001A68164B5A401204120C0D490A600D4A39
:100FF00012685A401204120C0B490A600B4A12681C
:101000005A401204120C0A490A600A4A12685340F4
:101010001B041B0C084A136084E7C0460C00054003
:101020000C1005402000054020100540340005400C
:10103000341005404800054048100540EE0200000D
:1010400010B580B20F4C246860400004000C0E4CB8
:10105000206089B20D48006841400904090C0C4821
:10106000016092B20B4909684A401204120C0A4905
:101070000A609BB2094A126853401B041B0C084AC1
:10108000136010BD0C0005400C1005402000054009
:10109000201005403400054034100540480005404C
:1010A0004810054010B532210020FFF789FE32219B
:1010B0000220FFF785FE32210420FFF781FE322156
:1010C0000620FFF77DFE0020FFF7D4FE0220FFF789
:1010D000D1FE0420FFF7CEFE0620FFF7CBFE10BDA9
:1010E000F0B585B0002409E0AA239B00984204DAF9
:1010F000A300224AAA21890099500134032C13DC51
:101100001E4EA700BD59E2001D4B9B181868596878
:1011100004F08EF82818B851C8239B009842E3DDEC
:10112000C8218900B951E8E76A46164B13CB13C2B0
:101130001B681360114B1B68134A9A18282A00D9A0
:1011400000930E4B5B68104A9A18282A00D9019325
:101150000A4B9B680C4A9A18282A00D90293074B1D
:10116000DB68094A9A18282A00D90393039B019A3D
:1011700002990098FFF764FF05B0F0BD800C0020D5
:1011800090170020E497001026FDFFFF78231A0037
:101190000240034205D0782A01D0002002E001205D
:1011A00000E001207047000030B585B04F4C2100B1
:1011B0004F4807F09DFD21004E4807F099FD03219F
:1011C0000C2000F0D9FA03210D2000F0D5FA0022FE
:1011D00001210C2000F0E8FA002201210D2000F08E
:1011E000E3FA03210E2000F0C7FA03210F2000F0DC
:1011F000C3FA002201210E2000F0D6FA00220121BC
:101200000F2000F0D1FA1F21142000F0B5FA1F21A1
:10121000152000F0B1FA00220121142000F0C4FAD8
:1012200000220121152000F0BFFA1F21122000F03A
:10123000A3FA1F21132000F09FFA0022012112209F
:1012400000F0B2FA00220121132000F0ADFA1F21B4
:101250001A2000F091FA1F211B2000F08DFA0022C5
:1012600001211A2000F0A0FA002201211B2000F029
:101270009BFA214804F0D8FE204804F0D5FE002453
:1012800017E021001E4804F0FFFE16E00023009343
:1012900001330F226A442900154807F061FD002838
:1012A00001DB184810E018480EE0184804F0ECFE86
:1012B00001347F2C14DC2307E3D0E5B22800FFF7CC
:1012C00065FF0028E2D0104804F0DEFEE217120F9E
:1012D000A1180F230B409B1A0F2BE6D00C48E5E713
:1012E0000C4804F0A1FE05B030BDC04640420F00DE
:1012F000E80D0020F00D0020049800101498001054
:1013000048980010FC970010549800107498001032
:101310000098001050980010F0B5C64600B584B093
:10132000040016001F00012398460093394A362115
:1013300007F00AFD0025009501230D226A4436219D
:10134000200007F00DFD43460093334A362120006C
:1013500007F0FAFC0095012303AA3621200007F0CC
:10136000FFFC6B461B7B1B026A46507B184303F055
:1013700043FF0022294B03F0D2FE294B9846186008
:10138000596032003B0003F09AFE04000D00434612
:101390001C605D600022002303F004FF00281CD1C4
:1013A0000022204B1E490868496803F09AFE03F0AA
:1013B0003FFF013080B2831E9BB2012B17D91A4B1D
:1013C0001A78904205D0012816D004281FD0164B59
:1013D000187004B080BCB846F0BD0022134B20004A
:1013E000290003F075FE434618605960D8E7104A9B
:1013F000136801331360E2E7042AE6D10C4B1B6843
:10140000002BE4D00B4A136801331360DFE7012A95
:10141000DDD1F3E796980010959800100080B63F54
:101420006016002000805640922500200080764003
:101430000C1F00201C23002070B50E0015001C009E
:10144000032100F099F90321300000F095F91F21E4
:10145000280000F091F91F21200000F08DF970BDE7
:1014600030B585B00F236B4400221A70002442E08F
:101470000D230C2215211420FFF7DEFF1AE02D4D5D
:10148000012300932C4A3621280007F05DFC00233D
:10149000009301330F226A443621280007F060FCD4
:1014A0000F236B441A78611C244804F0EDFD0A20D8
:1014B00001F010FB0F236B441B789B0613D4012C07
:1014C000DDD81F4D012300931B4A3621280007F069
:1014D0003BFC0023009301330F226A44362128008D
:1014E00007F03EFCDCE701342100164804F0CCFD97
:1014F0001E2001F0EFFA032C0EDC0F236B440022B8
:101500001A70012CB4D0022CD4D10F230E22132137
:101510001220FFF791FFCDE7152314220D210C2097
:10152000FFF78AFF132312220F210E20FFF784FFFB
:1015300005B030BDF00D00209798001058980010AD
:10154000E80D002078980010F0B5D6464F46464684
:10155000C0B582B0002399461EE00022494B20000E
:10156000290003F01FFE002807D04B46DA00464B47
:101570009B1800204349186059604B46DB00424CE1
:10158000E4180022414B2068616803F0C8FD206028
:10159000616001239C46E1444B46032B6BDC4B46C8
:1015A000DA003B4B9046434418685968394B434432
:1015B0001A685B6803F083FD06000F00364B434456
:1015C0009A461C685D68354B434418685968320078
:1015D0003B0003F0A4FD02000B002000290003F0F3
:1015E00077FD04000D0053461C605D602C4B4344A6
:1015F0001868596832003B0003F091FD02000B00AF
:101600002000290003F064FD00900191254B434424
:101610001C685D68244B43449A461A685B68300036
:10162000390003F04CFD0022204B03F078FD02004E
:101630000B002000290003F072FD02000B0000984F
:10164000019903F045FD04000D000F4B43441C605D
:101650005D6053461E605F600022154B03F0B8FDCD
:10166000002800D179E74246074B9B18002010491B
:101670001860596081E702B0E0BCBA46B146A8469E
:10168000F0BDC046000079C0901700200000D03F98
:10169000F017002068170020B0170020B00C0020C1
:1016A000D00C0020900C0020D01700200000244017
:1016B0000000794000B585B003AA11700312537081
:1016C00090700023009303336821024807F03CFB2D
:1016D00005B000BDF00D002000B585B003AA6B2356
:1016E000138000230093023368210F4807F02CFB7E
:1016F00006210E48FFF7DEFF08210D48FFF7DAFF4D
:101700000A210C48FFF7D6FF13211320FFF7D2FF61
:101710002F2015214042FFF7CDFF17210520FFF7AD
:10172000C9FF05B000BDC046F00D002065FBFFFFFE
:1017300028FEFFFF0D07000030B587B004000F2220
:101740006A44472313700B4D463B009368212800E1
:1017500007F0FAFA00230093023304AA6821280054
:1017600007F0FEFA6B461A7C12025B7C134323805F
:1017700007B030BDF00D002010B58300084A944634
:1017800063441C6840226240C024144080225201FD
:1017900013431C60C000034B9C466044416010BD75
:1017A00004C001400040014080000B4B9C46604457
:1017B00000290DD00823002A0CD00422134302680C
:1017C00053400C22134080225201104303607047A3
:1017D0000023F0E70022F1E704C00140034B1B683F
:1017E00002201840431E9841C0B2704700C0064016
:1017F000EFF3108072B6034B1B68002BFBD0BFF3D6
:101800005F8F70472C0100D0BFF35F8F024B002227
:101810001A6080F3108870472C0100D0F8B50600DC
:101820000C001500FFF7E4FFE308F718F15C07224E
:101830002240012393400B4205D1DBB20B433B70A6
:10184000FFF7E2FFF8BD2100280002F0E9F8F0B54B
:1018500083B00600019114001F00FFF7C9FF00E0EC
:101860000134BC420CD8E308F518F35C0721214091
:1018700001228A401A42F3D1D2B21A432A7001E0FF
:1018800001246442FFF7C0FF002C02DB200003B0FC
:10189000F0BD019B002BF9D0089802F0C1F80000C0
:1018A000002307E0054A9A189200BFF35F8F0021DA
:1018B000116001331F2BF5D97047C046400000343A
:1018C000054A1078431CDBB21370172B02D91300A2
:1018D00010221A707047C046F00C002000B583B08B
:1018E0000100044B00931F2318220348FFF7AFFFAA
:1018F00003B000BDC8980010681E0020074B9B680D
:10190000103080001950BFF35F8FBFF35F8F044B1F
:101910000021196082F310887047C04600ED00E096
:10192000240100D010B5091A081F0A4B9C466144D7
:10193000094A914208D8C30706D440104005400D1B
:10194000064B184380B210BD054B064AA32106483A
:1019500001F0CCFFFC070000FE0F000000E0FFFFDD
:10196000E4980010709B00101499001010B5091A2B
:1019700004394C08090B08D14905490D064A1143A1
:101980000180064B2343438010BD054B054AAB2124
:10199000054801F0ABFFC04600F0FFFF00F8FFFF75
:1019A00070990010449B001014990010012383408B
:1019B000034A10681840431E9841C0B27047C046A1
:1019C00000E100E0002904D0034B1860034B1860CD
:1019D0007047034B1860FBE780E200E000E100E0A5
:1019E00080E100E010B5012383401800FFF7EAFF13
:1019F00010BD000001238340014A13607047C046B8
:101A000000E200E0024B9B6810308000C058704735
:101A100000ED00E010B5FFF7F5FF002805D0054BFD
:101A2000C01A2F2803D8012010BD0020FCE7002099
:101A3000FAE7C046F40C002070B504000D00EFF387
:101A4000108672B60C4B1B68002BFBD0BFF35F8F68
:101A50002000FFF7D7FF094B984201D0A84205D1DB
:101A6000320029002000FFF749FF70BD044B054AF2
:101A70008621054801F03AFF240100D0CD01001075
:101A800080990010A49B001014990010F0B5DE4658
:101A900057464E464546E0B589B08146019115004E
:101AA000EFF3108A72B6744B1B68002BFBD0BFF3A8
:101AB0005F8F724B0027DF57002F40DB7C00E4195B
:101AC000A4006F4824180622A2566C4B1A706D4B66
:101AD0009A684B4610339B00D35898461E001B1A39
:101AE0002F2B38D9684B98452FD105AE674B3380E3
:101AF0007B009B46D8198000614B984640440230D9
:101B00006349FFF70FFF7080624BB380FF23B3710F
:101B1000F571019B07935F44BF0047440ECE0EC78B
:101B200001231C43A046524641464846FFF7E6FEC5
:101B300009B0F0BCBB46B246A946A046F0BD564B24
:101B4000564AD721564801F0D1FE564B534ADE2162
:101B5000534801F0CBFEC04340440C2103F074F81D
:101B6000002912D101239E43B34633000026DA79BF
:101B7000AA4211D90621595600290CDB4A005218F5
:101B800092001E003E4B9B18F1E7474B434AEA2167
:101B9000434801F0ABFE1E00002E3AD005AB434A8D
:101BA0001A80813A5A800623F3560293002B17DAE3
:101BB0003F4805AB9B469880029A9A71DD71019A65
:101BC0000792301D2100FFF7ADFEB080B7717B009A
:101BD000DB199B002A4FFF185B4607CB07C7A2E71C
:101BE0007800C0198000264BC0180430321DB3881D
:101BF000D90A1C2907D15B05591502314900511832
:101C0000FFF790FED5E72B4B2B4AB121244801F07A
:101C10006DFE05AE1D4B33807B000293D81980000A
:101C2000174A9046020042440392901C1849FFF75D
:101C300079FE7080039A101D5946FFF773FEB0803D
:101C40001E4B5A464146521A524153431B0DB37123
:101C5000F571019A0792029B9C466744BF00474476
:101C60000ECE0EC7114B5A461380813B5380012381
:101C70001C43A04657E7C046240100D08E25002013
:101C8000F40C002000ED00E0CD01001000A1FFFFEA
:101C9000240D002001BDFFFFB89900108C9B00109F
:101CA00014990010E0990010089A001001480000F3
:101CB00001BD00007C9A00107C9B0010AAAA0000C5
:101CC000F0B5CE46474680B583B006000D00EFF371
:101CD000108872B6564B1B68002BFBD0BFF35F8F8A
:101CE000544B9A6834001034A300D758524B9F428B
:101CF00007D0AF4200D198E00197504BFB1A2F2B31
:101D000009D9424639003000FFF7F8FD03B0C0BCE6
:101D1000B946B046F0BD3000FFF748FE81460021CD
:101D20003000FFF75FFEBFF35F8FEFF305810029FF
:101D300001D08C4211D10123019C9C430022A36855
:101D4000AB4212D00622A256002A0DDB53009B188C
:101D50009B002200394CE418F1E73621384B394A10
:101D6000FF31394801F0C2FD2200AB4256D10625B1
:101D70006557002D38DB6B005B199A002F4B9B18C1
:101D80009A68A260DA79E27106229A56A2719B796A
:101D90005BB2002B0FDA2D48A0806B005B199B0013
:101DA000264AD3182A4A117899711570494630008D
:101DB000FFF718FEA5E7201D6B005B199B001F4A6B
:101DC0009B181A1D9B88D90A1C2907D15B055B1536
:101DD000023359005118FFF7A5FDDDE71D4B1E4AE0
:101DE000B121194801F082FD002912D1002A0ED03C
:101DF000FF239371194B9380154A1378A371184BE5
:101E00000E49641A644163431B0D1370CEE70A4FF9
:101E1000F2E7201D1349FFF7A9FDC7E76A21124B1E
:101E2000084AFF31084801F061FD034F69E7C046E9
:101E3000240100D000ED00E0CD010010F40C0020E2
:101E4000949A00105C9B00101499001001BD0000D2
:101E50008E2500207C9A00107C9B001001BDFFFFA6
:101E6000AAAA00002E0D0020C89A001070B501210A
:101E700001432E4BCB1A2F2B28D8EFF30583002BD1
:101E80002BD0EFF3108C72B6294A1268002AFBD0CF
:101E9000BFF35F8F274A0400244D641B64416243F3
:101EA000120D54B2244A92689B00D2588A421BD029
:101EB0000022032A32D853009B189B001B49CB18E1
:101EC0009B795BB2A3421FD00132F2E7C7211B4BC3
:101ED0001B4A49001B4801F009FD92211A4B184A80
:101EE000FF31184801F002FD134A92681749D1509A
:101EF000174B1A7882711C70BFF35F8F0C4B002256
:101F00001A608CF3108870BD0D0053009918890079
:101F10006918FF268E710F4A8A80E9E7D1210E4B9E
:101F2000074A4900074801F0E1FCC046F40C0020D4
:101F3000240100D0AAAA000000ED00E0D09A001011
:101F4000289B001014990010F89A0010CD01001081
:101F50008E25002001BDFFFF049B00100022044BD2
:101F600002E0044902C30132072AFAD97047C04689
:101F700000E400E08080808000B583B00100064B63
:101F80000093052300220548FFF761FC002801DBD0
:101F90001F23181A03B000BD0C9B001094250020CD
:101FA00070B504000E001500FFF78AFC0100200048
:101FB00000F006F8A680E580BFF35F8F70BD0000DB
:101FC000024B9C4661448900016070474000003428
:101FD00010B50400FFF774FC01002000FFF7F0FFCC
:101FE000FF232371BFF35F8F10BD10B50400FFF70F
:101FF00067FC01002000FFF7E3FFFF2323710023AC
:102000006371BFF35F8F10BD034B9C466144890031
:102010000160BFF35F8F70474000003410B50400CB
:102020000120FFF75BFC01002000FFF7EDFF10BD72
:1020300070B505000C00080000F000FF0949200001
:1020400000F040FEFFF73CFC074B9C4660448000DC
:1020500068602C75D0231B061B786B75A400034B9E
:10206000E55070BD75230010400000342823002087
:102070000A4B1A68EFF3108172B61368002BFCD07C
:10208000BFF35F8F054B1B68BFF35F8F00221A60A1
:1020900081F3108840BF00200021704754250020A4
:1020A00010B5002922D003681B7B99421ED8174B1C
:1020B0009C466144090183689C4661440C684968F8
:1020C000002A19D003681B7B9A4215D883680F48F1
:1020D0008446624412019A18106853680200012075
:1020E0008B4201D80ED00020C0B210BD084B094A67
:1020F0003C21094801F0FAFB054B064A3C21064801
:1021000001F0F4FBA242EFD8EDE7C046FFFFFF0F5E
:102110008C9D00100CA00010389D001010B50029F7
:102120001ED0037B99421BD84B005B18033B04680D
:10213000A4466344002919D0002A1DD0914221D021
:10214000002A25D0047BA24222D8046850008018BF
:10215000033820188170197800291FD11A7010BD1A
:10216000104B114A6821114801F0C0FB104B114A75
:102170006F310E4801F0BAFB0F4B0E4A70210B482D
:1021800001F0B4FB0D4B0B4A7121084801F0AEFB86
:10219000044B054A6821054801F0A8FB41701A70FC
:1021A000DDE7C046B09D001078A00010CC9D001067
:1021B000349E001054A00010409E00104C9E001051
:1021C00070B506000D001400002914D0002A14D0A8
:1021D000806873689847002806D0220029003000E4
:1021E000FFF79CFF280007E02A0021003000FFF7DE
:1021F00095FF200000E0100070BD0800FCE7000023
:10220000F0B583B00500009201930AAB1C780BABCC
:102210001F78002C26D003685A7B944207D10123F3
:10222000002B19D1002C3BD1200003B0F0BD002CB5
:102230000CD01A7B944209D81A6863001B19033B1F
:10224000D3189B78002BEBD00123E9E73E4B3F4AA4
:1022500068213F4801F04AFB3E4B3F4A67213F4817
:1022600001F044FB03689C7B002CDBD012D01A7B6E
:1022700094420FD862001219033A19688C466244DE
:1022800051789973002900D1D9730023937053704A
:102290001370C7E72C4B2D4A68212D4801F026FB0F
:1022A000002C3AD02B681B7B9C4236D82C4BE31871
:1022B0001B01AA6894466344009A1A60019A5A6006
:1022C000089A9A60099ADA602E68002C2BD030D0D8
:1022D000337B9C422DD863001B19033B3268944624
:1022E000634400229A705A701A70717B2200300089
:1022F000FFF766FF7073844200D095E7287D009A4F
:10230000019B00F027FD061E01D0002F17D00C9B6B
:10231000002B00D188E71E7086E7124B124A3C2141
:102320000E4801F0E3FA114B114AA521084801F0CB
:10233000DDFA054B054A6821054801F0D7FA2868FF
:10234000210000F03FFFE2E7B09D001078A00010F0
:10235000CC9D0010649E001084A00010389D0010D9
:10236000FFFFFF0F8C9D00100CA00010349D00108B
:1023700068A00010F0B5DE4657464E464546E0B52B
:102380008BB00990002308938200B54BD6583700D4
:1023900052E0B44BB44A3F21B44801F0A7FAB44B21
:1023A000B44A3C21B44801F0A1FA002901D1002827
:1023B00069D10021404600F0FBFEA04219D12A68F5
:1023C0006B6806920793AB689846EB689A4643465B
:1023D000002B14D0002C18D03B681B7B9C4214D8D7
:1023E000631EFA68D35C08931B021843386100200F
:1023F00015E0A24BA24A8E219F4801F077FAA14B2B
:102400009F4A92219C4801F071FA994B9E4A4121C2
:10241000994801F06BFA00239A46984600207B68A1
:10242000BFF35F8F00221A6086F310884346002BAB
:1024300032D1002800D10CE100F000FC02000B1E9C
:10244000A7DB00200021069007917868EFF3108643
:1024500072B601680029FCD0BFF35F8F39688846E7
:102460004C7B002CD7D09AD0097B8C4297D88749D7
:1024700065182D01B9688C46654428686968801A1A
:102480009941002991DD2A686B68099800F062FC87
:1024900000239A469846C2E7089B1B0223439946AD
:1024A00051461800C04705000E007A68EFF3108B04
:1024B00072B6136859424B41D9B2002BF9D1BFF320
:1024C0005F8F002E1EDB002E46DD3B69002B47D0C0
:1024D0004B456DD100F0B2FB02000B1E6EDB5219B2
:1024E0007341002B70DB002B72DB00210491013162
:1024F0000391029451460191414600913800FFF743
:102500007FFE4CE03B69002BDDD04B4514D1069A91
:10251000079B521BB341002B14DB002B16DB002161
:102520000491013103910294514601914146009179
:102530003800FFF765FE32E0554B514AA1214E4865
:1025400001F0D4F901225242524BE6E7454B464A8C
:102550003F21464801F0CAF9002E01D1002DB4D127
:102560003B68002C50D05A7B944237D1012100297E
:102570004AD1DA7B002A4DD19A7B002A03D1DA7B3B
:10258000002A5AD19C73DC73002C5CD03B681B7B07
:102590009C4258D8FA68013C135D0133135500235F
:1025A0003B617A68BFF35F8F13608BF3108843E75A
:1025B000374B334AA421304801F098F9294B2A4A75
:1025C0003F212A4801F092F901225242314B8AE719
:1025D000244B254A3F21254801F088F9002C0DD0D5
:1025E0001A7B94420AD862001219033A186884468A
:1025F00062449278002ABAD00121B8E7264B274AD4
:102600006821274801F072F9264B274AF621244811
:1026100001F06CF9002A0AD0197B8A4207D85100D0
:102620008A18033A19688C4662445470A4E71A4B1E
:102630001A4A68211A4801F059F91C4B1A4AFB2121
:10264000174801F053F90A4B0F4A41210A4801F09B
:102650004DF90BB0F0BCBB46B246A946A046F0BD52
:1026600028230020309C0010D89F00104C9C0010A4
:102670008C9D00100CA00010389D00108C9E001046
:10268000F09F0010A49E001030A00010FFFFFF0F6D
:10269000B09E0010FFFFFF7FB09D001078A00010DB
:1026A000CC9D0010EC9E001044A00010109F001064
:1026B00010B50C4B5B68002B04D00A210A48FFF7C9
:1026C0007FFC10BD074C2300084A1021206800F051
:1026D0007FFC032000F0A6FA03212000FFF7A8FCEE
:1026E000EBE7C0463C0D002054250020A12000103F
:1026F00010B5064B5B68002B01D0044810BD044B9D
:10270000044A5E21044801F0F1F8C0463C0D002067
:10271000249F001018A00010389D0010F0B5DE4670
:1027200057464E464546E0B58BB0804616001F0022
:10273000149B9A46159B994616AB1B789B461F2304
:1027400002AA9446634400221A702BE0002809D0A4
:1027500042461268127B904204D8421E4146C96824
:102760008A5C41E0404B414A4121414801F0BEF8BA
:1027700007984CE0361BAF41002F07DB002F11DA22
:102780003C4B3D4A3F213D4801F0B0F801267642DE
:102790003B4FF3E7374B384A3F21384801F0A6F862
:1027A000002F4FDB43465A68EFF3108472B613686C
:1027B00059424B41D9B20791002BF8D1BFF35F8F3B
:1027C0001F3302AA944663440493002303930293A5
:1027D0004B4601935346009332003B004046FFF7BF
:1027E0000FFD031EB2D1020041464968BFF35F8F5F
:1027F00000250D6084F31088002B29D01F2302A927
:102800008C4663441B78002BB2D112021043002B7C
:1028100020D05B46002B1DD04946D04704000D0058
:1028200003000B431DD00029A4DB00F007FA0600CB
:102830000F1EAFDB36196F41002FB1DA0126764249
:102840000F4FADE70B4B0C4A3F210C4801F04EF8FF
:10285000012040420BB0F0BCBB46B246A946A046A0
:10286000F0BD0798F6E7C0468C9D001030A0001020
:10287000389D0010309C0010D89F00104C9C001018
:10288000FFFFFF7FF8B50400002900D162E0426835
:10289000EFF3108572B6136858424341D8B2002B4B
:1028A000F9D1BFF35F8FCBB22268567BB3421BD105
:1028B0000120002848D0206988422BD0090AC9B2DB
:1028C000002B2ED02068007B83422AD8581EE66851
:1028D000305C88422BD000206368BFF35F8F0022FA
:1028E0001A6085F31088F8BD002B0DD0167BB3421B
:1028F0000AD85E00F618033E1768BC466644B678F0
:10290000002ED6D00120D4E7134B144A6821144876
:1029100000F0ECFF2C21134B134AFF31134800F059
:10292000E5FF134B134A4121104800F0DFFF190067
:10293000100000F047FC0028CED199210E4B0A4A26
:1029400049000A4800F0D2FF23698B42C4D100231A
:102950002361C1E70020C6E7B09D001078A00010F9
:10296000CC9D0010489F0010C09F0010389D0010A3
:102970008C9D001030A000106C9F0010407D7047AF
:10298000F0B587B006000F00EFF30583002B1FD1D1
:1029900006246442E517A4197D418D4202D803D173
:1029A000844201D900240025002D14DB04940595F0
:1029B00000F044F902000B1E13DBA41A9D41002D08
:1029C00017DC14D03000390000F044F907B0F0BD36
:1029D000234801F025F8234B234A3F21234800F0E8
:1029E00085FF204B204A3F21204800F07FFF002C2C
:1029F000E8D0FFF77DFE0023029301931C4B009368
:102A0000049A059BFFF78AFE002818DADAE700230C
:102A100000E00023002BD5D1164B1A68EFF310818C
:102A200072B61368002BFCD0BFF35F8F114B1B688D
:102A3000BFF35F8F00221A6081F3108820BF0499D2
:102A4000059A0D4B5B6A9A42E3D80B48806A88422C
:102A500003D29A42DBD00123DCE70123DAE7C04648
:102A6000709F0010309C0010D89F00104C9C0010EC
:102A700071200010542500200040054070B504006E
:102A80000D0000F0DBF802000B1E0ADB200029001D
:102A90008018594100290ADB00290CDBFFF770FF81
:102AA00070BD084B084A3F21084800F01FFF012075
:102AB00040420749F0E7034B034A3F21034800F037
:102AC00015FFC046309C0010D89F00104C9C001091
:102AD000FFFFFF7F10B5FA2292000023002102F0D1
:102AE00029FFFFF7CBFF10BD70B584B005000C00C7
:102AF000EFF30583002B1ED1FFF7FAFD00230293AD
:102B00000193224B00932A002300FFF707FE061EC5
:102B100023DD20BFFFF7ECFD3100FFF7B3FE1C4BB8
:102B20005B6A9C422DD81A4A926AAA422CD29C42D5
:102B300025D0012026E0164B5B6A994209D8144A39
:102B4000926A824207D2994201D001201AE0002005
:102B500018E0002016E0012014E00D4B5B6A9C4257
:102B600009D80B4A926AAA4207D29C4201D001209E
:102B700008E0002006E0002004E0012002E0002040
:102B800000E0002004B070BD0120FBE771200010C0
:102B90000040054070B5EFF305801038EFF3108C5E
:102BA00072B61A4B1B68002BFBD0BFF35F8F01225C
:102BB0001300834016494B6316490B601649097888
:102BC0000C00C440224214D0114A546A8200134DB2
:102BD0005259944206D38200114C125999430E4B1C
:102BE000197007E00A4A031D9B009958995000226A
:102BF00000E00022BFF35F8F044B002119608CF3CB
:102C00001088002A00D0904770BDC046280100D02F
:102C1000004005403C7005409325002060250020C1
:102C2000A81C002010B50100024A0348FEF7F6FD7B
:102C300010BDC0469CA000108D250020044B5B6A8F
:102C4000034A906A1900536A9942F9D17047C04605
:102C500000400540084B5B6A01E0074B5B6A8B4212
:102C6000FBD301E0044B5B6A8B4203D1024B9B6AAE
:102C70008342F7D37047C0460040054070B504005A
:102C80000D00FFF7DBFF02000B0020002900801879
:102C900059418B4202D804D1824202D901204042DC
:102CA000C117002902DBFFF7D5FF70BD024B034AB5
:102CB0003F21034800F01AFE309C001060A1001074
:102CC0004C9C001070B504000D00EFF3108672B636
:102CD0001B4B1B68002BFBD0BFF35F8F002D1CD05C
:102CE0002000FEF78FFE174B83420BD01900200007
:102CF000FEF7A2FE01212000FEF774FE0123A3408F
:102D0000114A1360A400114BE550BFF35F8F0C4BC9
:102D100000221A6086F3108870BDA2000B4B0021C0
:102D2000D1500122A2400A490B7893430B70054908
:102D30002000FEF7C5FF00212000FEF753FEE4E768
:102D4000280100D0952B001038600540A81C0020F9
:102D500093250020F0B5DE4600B584B004001500D0
:102D600001921E000293FFF769FF03958E4202D87D
:102D70004ED185424CD9EFF3108B72B6274B1B68AE
:102D8000002BFBD0BFF35F8F254A17780125A540A4
:102D9000EBB23B431370234B5D63221D92000199FC
:102DA000D150A2002049029850501B6A2B4212D1E8
:102DB0001C4B1B6C2B4208D00020BFF35F8F174BBE
:102DC00000221A608BF3108823E0184B184AC521A3
:102DD000184800F08BFDFFF731FF8E4214D802D166
:102DE000039B834210D80E4B1B78BB420ED00D4B79
:102DF0001D625D631F2004400123A3400E4A13603F
:102E0000074B1F701E38D8E70020D6E70120D4E713
:102E1000012004B080BCBB46F0BDC046280100D0F4
:102E2000932500200040054060250020C0A0001030
:102E300044A10010E4A0001080E200E0EFF3108C49
:102E400072B60B4B1B68002BFBD0BFF35F8F0123C7
:102E50008340084A136208490A789A430A70BFF30C
:102E60005F8F034B00221A608CF310887047C046B6
:102E7000280100D0004005409325002010B500290E
:102E80001ED0037B99421BD84B005B18033B0468A0
:102E9000A4466344002919D0002A1DD0914221D0B4
:102EA000002A25D0047BA24222D804685000801852
:102EB000033820188170197800291FD11A7010BDAD
:102EC000104B114A6821114800F010FD104B114AB7
:102ED0006F310E4800F00AFD0F4B0E4A70210B486F
:102EE00000F004FD0D4B0B4A7121084800F0FEFC78
:102EF000044B054A6821054800F0F8FC41701A703F
:102F0000DDE7C046B09D001080A20010CC9D0010EF
:102F1000349E00106CA20010409E00104C9E0010C9
:102F200070B506000D001400002914D0002A14D03A
:102F3000806873689847002806D022002900300076
:102F4000FFF79CFF280007E02A0021003000FFF770
:102F500095FF200000E0100070BD0800FCE70000B5
:102F600010B50023437301338373037BC3730123C1
:102F7000027B9A4214D9002B0CD0027B934209D8D1
:102F80005A00D218033A01688C4662440133DBB21E
:102F90005370EDE70B4B0C4A68210C4800F0A6FC7F
:102FA000002A09D0924207D8016853009A18033AC0
:102FB0008A180023537010BD024B034A682103484E
:102FC00000F094FCB09D001080A20010CC9D001079
:102FD00010B5017342608360FFF7C2FF10BD0000AF
:102FE00070B50400081E00D170BD002934D0237BC9
:102FF000994231D84B005B18033B226894466344E6
:103000005A78002AF0D02DD0237B9A422AD8530038
:103010009B18033B21688C4663445D7800215970FE
:10302000002825D0237B984222D843001B18033B5D
:1030300021688C4663440021597001002000FFF78D
:103040006FFF060029002000FFF7CAFF02003100D1
:103050002000FFF765FFC7E7084B094A68210948C8
:1030600000F044FC054B064A6821064800F03EFC8F
:10307000024B034A6821034800F038FCB09D001061
:1030800080A20010CC9D001070B505000C00160049
:1030900000292FD034D0037B994231D84B005B18E4
:1030A000033B0268944663445A78002A2ED19A78EA
:1030B000002A31D11978FFF793FF0300002E0AD0C0
:1030C000EA7B002A2ED1AA7B002A03D1EA7B002AC0
:1030D0003BD1AC73EC73002B3DD1002C4FD02B7B3C
:1030E0009C424CD82B6861000C19033C1C1900232E
:1030F000637070BD254B264A3821264800F0F6FB48
:10310000254B264A6821264800F0F0FB254B204A33
:103110003A21204800F0EAFB234B1D4A3B211D4881
:1031200000F0E4FB002A0AD0297B8A4207D851002C
:103130008A18033A29688C4662445470C3E7164BD8
:10314000164A6821164800F0D1FB184B104A42215C
:10315000104800F0CBFB002B0BD02A7B934208D801
:1031600043001B18033B2A689446634400229A706C
:10317000B3E7094B094A6821094800F0B7FB064B41
:10318000064A6821064800F0B1FBC04678A100104D
:1031900058A2001080A10010B09D001080A2001065
:1031A000CC9D0010D4A10010FCA10010109F0010B5
:1031B00070B504000A00457B2900FFF765FF6073C6
:1031C000280070BD70B50400002967D0437B8B4296
:1031D0000ED0002911D0037B99420ED84B005B180A
:1031E000033B0268D0188378002B0CD1002056E0F6
:1031F0000121FFF7DDFF012051E0294B294A682119
:10320000294800F073FB002B20D0227B93421DD86D
:103210005A00D318033B2268D2182568EB5C8B4216
:103220001AD0002B1BD0227B934218D85A00D318F7
:10323000033B2268D21853788B4216D0002BF0D172
:103240001A4B1B4A6B211B4800F050FB144B154ACC
:103250006821154800F04AFB4378137007E0104BD3
:10326000104A6821104800F041FB43785370002356
:103270008370437001222000FFF706FF0200617B8C
:10328000814205D02000FFF74BFE6073012006E06D
:10329000094B074A7121074800F028FB002070BD48
:1032A000B09D001080A20010CC9D0010049B001067
:1032B00040A2001080A1001020A2001070B5046B85
:1032C000E30701D4200070BD02003032C0239B010F
:1032D00013430A4A1A60456A826AAD01AD18AD020D
:1032E000062000F0C5F9064901F0AEFC01002800F7
:1032F00001F0AAFC0021FFF7C1FCE3E70103000095
:103300004E0E000070B504000E001500FFF7D6FF4A
:1033100022002C32E16A4E40354080235B0113438A
:103320001D60206370BD000070B505000C00062014
:1033300000F09EF9C000210001F086FCC60908D00B
:103340000E4B9E4216D87F231840013034004608A9
:1033500000E001246C62AE62002200212800FFF729
:10336000D1FF062000F084F98000A101891901F045
:103370006BFC70BD0026024CECE7C046FEFF00006F
:10338000FFFF000010B505394901013AD200114391
:10339000002B09D002220A43012B07D00021114340
:1033A0006E22FFF7AFFF10BD0022F4E70421F6E71D
:1033B00010B5002900D010211022FFF7A3FF10BD87
:1033C000002909D00A22064B9C46604443425841DA
:1033D0004000044BC252704780225200F3E7C046BF
:1033E0000080FCBF7025002070B505000C00062091
:1033F00000F03EF9061E27D0164B9D4226D08022B3
:10340000D203154B1A60154B1A60154B9B681100BF
:103410009943FAD100212800FFF7D2FF21002800AC
:10342000FFF782FF06000023012208212800FFF792
:10343000A9FF2A002C3280239B01134310221A601B
:10344000084B2B630323AB64300070BD8022120451
:10345000D7E7C0460080034000E0004000F0004095
:1034600000C0004001030000F8B5DE4657464E4656
:103470004546E0B505000F0092460A9A934250D3A4
:103480001A0E91461E020A9A00233000494601F0A6
:1034900019FC80466C006419A400304B9C466444BF
:1034A0006368834200D260602B1FDBB29B46012B16
:1034B0003DD9C0239B012343802212011A60AB0037
:1034C000274A9958002907D0506901F0BDFB431CD9
:1034D0005800C0180338FDD253465A0123685A4099
:1034E000E0231A4080235B0123431A605A46012AD5
:1034F00028D980239B012343802212011A6043466E
:103500006360424600233000494601F0DBFBAD001A
:10351000134B58510120F0BCBB46B246A946A04609
:10352000F8BD104B104A3321104800F0DFF9012F8D
:10353000BFD1C0239B01234303221A60A368DB078A
:10354000FCD5C9E72168794003220A401A60A268C5
:103550000123BB401342FAD0CBE7C04600800040B5
:103560006C1E00208CA2001000A30010A0A200106E
:1035700030B583B00C2000F011F9FEF72FF90028C8
:103580000DD0002304E099002D4A2E4888500133C5
:10359000092BF8D92A4B2C4A5A6203B030BD2B4B69
:1035A00000229A6700F06CF9294B01221A60274B20
:1035B0005B6C012BFBD1274B03221A60234B9B6BC7
:1035C000012BFBD1013300930433234A012123480B
:1035D00000F054F805230093214A0121214800F00E
:1035E0004DF8214B0093002202210420FFF73CFFFD
:1035F0001E4D00952B00002201210520FFF734FF0E
:10360000104C00942300002200210720FFF72CFF1C
:1036100000942300002200210820FFF725FF0A4B19
:1036200000932300002200210920FFF71DFF0095D1
:103630002B00002200210620FFF716FFADE7C04651
:103640006C1E0020006CDC021BB7000000800040F4
:103650003CB0004030B00040002F6859008002406C
:10366000008C864700C00240001BB700405973071A
:103670008000014BC05870476C1E0020F0B5C64654
:1036800000B504000E0017001D00374801F0DCFAF9
:103690008046364BFA18364B9A4239D8010038002A
:1036A00001F0D2FA0200103A98235B009A4235D812
:1036B0006B1E062B38D8069B013B062B34D83F09DE
:1036C000474537D32D04069B1A0315432368002B67
:1036D00036DB284B9C4244D080225201264B1A6094
:1036E000264B1A60264B9B6811009943FAD126603D
:1036F000A060231DC02292011A4321231360236876
:10370000002BFCDAE5600823136080BCB846F0BDEE
:103710001C4B1D4A11211D4800F0E8F81C4B1A4AA9
:1037200019211A4800F0E2F81A4B174A1C211748D1
:1037300000F0DCF8184B144A2321144800F0D6F8A6
:1037400022683F231340B342C3D1A3681B051B0D5E
:103750008342BED1E368EE22D2021340AB42B8D11D
:10376000D3E780229201B9E7001BB70080E84BD372
:1037700080F8A93200C0024000E0004000F00040A4
:1037800000C0004010A3001050A4001070A300104F
:10379000CCA30010E8A3001034A4001080239B00E9
:1037A0000343014AD362704700800540024B1A6808
:1037B000024B5A607047C046142300200080054029
:1037C00010B50200164B8020C0051860154B164836
:1037D000186000290AD0154BE021C9041960002A9D
:1037E00009D1124B802212061A6010BD0C4BE02149
:1037F000C9041960F3E753019B1A9800801800016F
:103800000B4B186080235B04984202D3084B094A93
:103810001A60FFF7CBFF054B8022D2051A60E4E760
:1038200000B0054008200140FCFF010000A0054059
:1038300014230020FFFFFF0010B5030010000C4A06
:103840008024E4051460002B0DD001221343094AA3
:10385000094CD461094C5C401462516293620021AE
:10386000FFF7AEFF10BD034B0022DA61F7E7C04659
:1038700000B0054000800540D3C007B02D3FF84F91
:10388000064BAA2212011A602F22DA60044B054A65
:103890001A60024B5B68002BFBDA70470040024065
:1038A0000060024000B0FA0000BEFDE703000A4AD3
:1038B0001268002A08D0084A1068C318074A9A42BA
:1038C00006D3054A13607047034A05491160F2E7C1
:1038D00001204042F7E7C046101F002000000420EE
:1038E0009825002010B5FFF7DFFF000010B582B06B
:1038F0000C001900002A0CD0084B002A0BD00192B2
:10390000009323000200064802F0BEFB0120FFF7EF
:10391000CBFF044BF1E7034AF1E7C0465CA400107B
:103920006CA400105C97001070B52B4B2B4A1A60EA
:103930002B4B2C4A1A602C4B9A682A4B9343FAD192
:103940002A4C01E008CC9847294B9C42FAD3FFF758
:103950000FFE234B274A1A60234B9B68DB43DB0196
:10396000FAD1254B40229A675A671A67DA66234CC8
:1039700009E0234B234A87212348FFF7B7FF2000A4
:10398000FEF726FB0834214B9C4209D22368002B0A
:10399000F5D0012BEDD12000FEF727FB0834F2E72C
:1039A0001B4CA1681B4DC022280002F015FAA5602F
:1039B000EFF30583002B00D000BEFDF771FFFEF78B
:1039C000CDFAFEF775FE144C01E008CC9847134B76
:1039D0009C42FAD370BDC04600E00040BFCDFBFE64
:1039E00000F00040FE7F3C0000C000404816002070
:1039F00058160020FFFFFF0100F00140381600209C
:103A00009CA400102CA50010BCA400104816002097
:103A100000ED00E000000020581600206016002095
:103A20000FB400B583B0084802F0FEFA049B002BE7
:103A300007D005A90191180002F006FB034802F027
:103A4000F3FA0120FFF730FF1CA500107498001056
:103A5000704710B5002802D00B684968984710BD20
:103A60000100002007E083001B185B00501C086069
:103A70001078C01830380A681378303BDBB2092B55
:103A8000F1D97047F0B5DE4657464E464546E0B59B
:103A900083B093461F000C9B9A460D9C0E9B994643
:103AA0000F9B9B0703D0B8460F00060022E001924F
:103AB000A34688464E46B9460700B44207D2551C75
:103AC0004B4641462020B84701342A00F5E73D0027
:103AD0004F465C46019B9B46B1464646B84637007A
:103AE0002E0007E0013C551C5346185D4346390043
:103AF000B0472A00002CF5D135003E0047460F9B09
:103B00009B0707D4100003B0F0BCBB46B246A946E1
:103B1000A046F0BDB0464E46B9462F005D46531B49
:103B2000B342EFD2541C4B4641462020B8472200F6
:103B3000F5E7F0B5CE46474680B585B09446984641
:103B40000C9D0D9C0EAB1B789946109A119B129EF2
:103B5000B7071CD4002B0CD0F7070AD54F46002F0F
:103B600002D10C37374204D0013B02E030272F55F9
:103B70000134944201D21F2CF8D9F70707D59C4293
:103B800005D21F2C03D830272F550134F5E7F7064F
:103B900015D5770505D4002C03D0944224D09C423F
:103BA00022D00F9A102A2BD00F9A102A30D00F9AB9
:103BB000022A35D01F2C02D830222A5501341F2C5E
:103BC00005D84A46002A31D02D222A5501340396C1
:103BD00002930194009543466246FFF753FF05B0F8
:103BE000C0BCB946B046F0BD621E012C06D00F9F86
:103BF000102F01D01400D4E7023CD2E71400D0E724
:103C0000B206D1D41F2CCFD878222A550134D1E75F
:103C1000B206CCD51F2CCAD858222A550134C9E780
:103C20001F2CC7D860322A550134C3E7720703D569
:103C30002B222A550134CAE73207C8D520222A553B
:103C40000134C4E7F0B5DE4657464E464546E0B57A
:103C500093B081468A46089209931CAB10CB1B781F
:103C60009B461E9D219B9846002C03D11023424663
:103C70009A4390468023DB0046461E4042461A4245
:103C800012D0002C22D000260EE03033D9B2771C9F
:103C90000AAB99552900200000F0D6FFAC4216D39C
:103CA0001F2F14D83E0004002900200000F0CCFF94
:103CB000CBB2092BE9D94246920605D54121C91854
:103CC000C9B20A39C9B2E2E76121F8E727004346E1
:103CD0000693209B05931F9B049303955B460293D9
:103CE00001970AAB0093099B089A51464846FFF793
:103CF00020FF13B0F0BCBB46B246A946A046F0BDBB
:103D0000F0B5DE4657464E464546E0B595B00890BC
:103D100009910A920B931E9E1F9C20AB1B789B4619
:103D2000229B9946239D269B9A463300234303D129
:103D3000103352469A4392468023DB0057461F4079
:103D400052461A4219D0330023432DD0002714E0E5
:103D50003033DAB27B1C98460CABDA554A462B005E
:103D60003000210000F0AEFFA5421FD819D0434615
:103D70001F2B1BD8474606000C004A462B0030007C
:103D8000210000F09FFFD3B2092BE1D952469206E1
:103D900005D54122D218D2B20A3AD2B2DAE761226C
:103DA000F8E7B145E3D901E000239846534606936E
:103DB000259B0593249B04934B4603935B460293F8
:103DC000434601930CAB00930B9B0A9A0999089800
:103DD000FFF7AFFE15B0F0BCBB46B246A946A04601
:103DE000F0BD0000F0B5DE4657464E464546E0B50C
:103DF00091B083468A460C9298461A9C08941B9D63
:103E0000099522002B002000290001F0E6F9002886
:103E100000D0E5E001225242D74B2000290001F0FA
:103E2000D7F9002800D0DBE001225242D34B20001A
:103E3000290001F0B7F9002800D0D1E000220023CA
:103E4000089E3000099D290001F0ACF9002800D03F
:103E5000DDE008980999069007918023DB001E9AFF
:103E60001A400D921E9A1A4201D106231C930698FD
:103E7000079904000D000A000600024300D1D1E0BA
:103E8000080D4005400DBE4CA44660440A03120BC9
:103E9000BC4B13431F0001F0B3F9BB4ABB4B01F00D
:103EA0003EF9BB4ABB4B01F013F904000D000022A0
:103EB000B94B3000390001F002F9B84AB84B01F0B3
:103EC0002EF902000B002000290001F001F901F099
:103ED000AFF9814601F094F904000D00B14AB24BEC
:103EE00001F01DF90022B14B01F0F2F801F0A0F948
:103EF0000600AF4AAF4B2000290001F010F9040082
:103F00000D00300001F07CF9AB4AAC4B01F007F931
:103F100002000B002000290001F0D1F804000D0080
:103F200002000B0001F0FBF80A900B91A44BF31870
:103F300000261F0522002B002000290001F0C8F8F0
:103F40000E900F9122002B0000208021C90501F066
:103F5000B6F804000D0000229A4B0A980B9901F064
:103F6000C0F80022984B01F0B3F802000B000A9849
:103F70000B9901F0B6F80022944B01F0A9F8020069
:103F80000B000A980B9901F0ACF802000B0020001E
:103F9000290001F09DF802000B000E980F9901F026
:103FA000A0F80022774B01F093F832003B0001F0BB
:103FB000B6F806000F0004000D00069A079B01F0FA
:103FC00007F9002830D001235B429C46E1440022DF
:103FD0007D4B3000390001F084F804000D0023E02F
:103FE0001E9B04931D9B03931C9B0293089A099BA1
:103FF0000092019343460C9A5146584600F0FCF853
:1040000011B0F0BCBB46B246A946A046F0BD0023A5
:10401000002406930794069680231B069C4665445D
:1040200007951AE7002399464B466333C62B1ED8E3
:1040300004261E9B1B0526D52B0023430FD0644A64
:10404000644B0698079901F0BBF8002879D000224C
:10405000614B0698079901F0A5F8002871D01C9BC8
:104060004B4506DD4A46981A431E1C9303E005267D
:10407000DFE700231C938023DB001E9A1A431E9265
:104080000026002399461D9B9E4264D29F1B02235B
:104090001E9A1A400A921E9A134202D0002E00D095
:1040A00000274B46002B07D022002B0006980799CB
:1040B00001F017F80690079100220023089809994B
:1040C00001F070F8002848D1444B1E9A1340049325
:1040D00003971C9B0293069B079C00930194434605
:1040E0000C9A5146584600F087F8002E00D187E719
:1040F0001E9B9B063DD54525441C43460200514668
:104100002800D8474B46DA179B18534005220592E2
:10411000013E0496002203920A3202924A46D00FD0
:10412000019000934346220051465846FFF78AFD0E
:104130000A9B002B00D163E702005F460C9E1D9D89
:1041400054E01C9B002B9ED00D9B002B9BD01C9BF6
:10415000013B1C9397E7002799E7069C079D2200E7
:10416000290080200006844661440B0006920793D4
:10417000AAE76525C0E7C046FFFFEF7FFFFFEFFF1F
:1041800001FCFFFF0000F03FFB799F501344D33F39
:10419000B3C8608B288AC63F0000F83F61436F6355
:1041A000A787D23F71A379094F930A400000E03FEF
:1041B0001655B5BBB16B0240EF39FAFE422EE63F11
:1041C000FF03000000002C400000244000001840C5
:1041D0002D431CEBE2361A3F80842E41FFF7FFFF90
:1041E000541C434651462020B8472200931BAB4243
:1041F000F6D3100004E7C046F0B5DE4657464E46FB
:104200004546E0B595B00690079193469946209FA4
:104210001E9A1F9B1000190000F0DFFF002831D10B
:1042200001225242BF4B1E981F9900F0BBFF00288D
:1042300037D101225242BC4B1E981F9900F0C8FF93
:1042400000283DD10022B94B1E981F9900F0C0FFF5
:10425000002850D10022B64B1E981F9900F0A2FFF3
:10426000002848D1002200231E981F9900F09AFFD1
:10427000002850D100239846229B5B0500D4B6E06D
:10428000002458E0229B0393219B02930323019374
:10429000A84B00934B465A4607990698FFF7F2FB46
:1042A0000EE1229B0393219B029304230193A24BD3
:1042B00000934B465A4607990698FFF7E3FBFFE049
:1042C0000423229A1A4022990B4210D09B4B002AB9
:1042D0000FD0042222990391219902910192009317
:1042E0004B465A4607990698FFF7CCFBE8E0944BFB
:1042F000EDE70322EEE7229B0493219B03930297B1
:104300001E9B1F9C009301944B465A4607990698A2
:10431000FFF768FDD4E01E9A1F9B0020002100F0EB
:10432000CEFE1E901F9101239846A5E70CAB3022CC
:104330001A55013F01341F2C01D8092FF6D81E98B9
:104340001F9900F075FF050000F05AFF02000B00F6
:104350001E981F9900F0B3FEFA007A4B9B181A685A
:104360005B680A920B9300F0DAFE0890099100F066
:1043700083FF060000F040FF02000B000898099937
:1043800000F09DFE0890099100226F4B00F020FF85
:1043900000282ED00136300000F02EFF02000B0066
:1043A0000A980B9900F004FF002801D0013500267F
:1043B000002F2CD1280000F023FF02000B001E98D4
:1043C0001F9900F07CFE06000F0000225E4B00F0FB
:1043D000E9FE002846D100225B4B3000390000F096
:1043E000F7FE00283ED1EB073CD501353AE0062721
:1043F00046E70022544B0898099900F0D3FE0028A4
:10440000D6D1002E01D0F307D2D50136D0E7AA4687
:104410001F2C11D8013F0A21300000F015FC651C4B
:1044200030310CAB19550A21300000F00DFC092E7B
:104430000ED906002C00EBE755461F2C0CD87B1E2E
:10444000002F09D00CAA302111551F000134F4E7C8
:104450002B0055461C00F0E71F2C03D80CAB2E2276
:104460001A5501341F2C10D80A21280000F0C4FB73
:10447000661C30310CAB19550A21280000F0BCFB3A
:10448000051E01D03400EDE734000323229A1340C7
:10449000012B1CD01F2C06D84346002B32D00CAB6E
:1044A0002D221A550134229B0393219B02930194E0
:1044B0000CAB00934B465A4607990698FFF7E2FA71
:1044C00015B0F0BCBB46B246A946A046F0BD219B44
:1044D000002B13D04346002B02D10C3313420FD0D4
:1044E000219B013B2193190003E00CAB30221A55AC
:1044F00001348C42CED21F2CF7D9CBE72199F8E7B3
:104500002199F6E7229B5B0704D50CAB2B221A55A9
:104510000134C8E7229B1B07C5D50CAB20221A55D6
:104520000134C0E7FFFFEFFFFFFFEF7F65CDCD4117
:1045300065CDCDC148A500104CA5001040A50010C8
:104540003CA5001038A700100000E03FF0B5DE46A3
:1045500057464E464546E0B593B082468B46904658
:104560001193002900D1EBE200275546119B1878E2
:10457000002800D1E7E2252809D07C1C43463A00F8
:104580005946A847119B013311932700EEE70133E9
:1045900011930024119A11780B00203BD8B21028F7
:1045A00003D88300D048C3589F460B00303BDBB292
:1045B000092B2CD92A292FD000230A93119B1A7872
:1045C0002E2A39D000239A46119A1378683BD9B223
:1045D000122976D88B00C549CB589F4601231C432E
:1045E00001321192D6E702231C4301321192D1E726
:1045F00004231C4301321192CCE708231C430132EF
:104600001192C7E710231C4301321192C2E711A88F
:10461000FFF726FA0A90D1E71C9B1A1D1C92186816
:10462000002804DB0A90119B01331193C6E7022393
:104630001C4343420A93F6E78022D20014435A1CDB
:1046400011925A781300303BDBB2092B04D92A2A85
:1046500007D000239A46B7E711A8FFF701FA824670
:10466000B2E71C9B1A1D1C921868002804DB8246C6
:10467000119B01331193A7E70020F8E780235B002B
:104680002343511C119152786C2A01D01C0018E070
:10469000C0239B001C430131119112E0802323436E
:1046A000511C11915278682A01D01C0009E0C023E6
:1046B0001C430131119104E080235B001C43013253
:1046C0001192119B18780300253BDAB2532A00D9C6
:1046D0002CE29300864AD3589F4680239B001C43BC
:1046E00001321192EDE780235B001C4301321192ED
:1046F000E7E7782809D0582838D06F2838D06228C2
:1047000038D010239C430A2600E01026582833D0C6
:10471000692803D0642801D00C229443630501D595
:104720000122944369282AD0642828D0A30500D503
:104730009FE0E30500D5B8E0630600D4CAE01C9A08
:10474000111D1C911168FF220A4005940A9B0493D5
:1047500053460393029600230193009243463A0086
:1047600059462800FFF76EFA070027E01026CDE72C
:104770000826CBE70226C9E720221443C8E7A30591
:1047800020D4E30550D4630666D51C9A111D1C91F4
:104790001168FF220A40D317D118594005940A9B8B
:1047A0000493534603930296D20F0192009143461D
:1047B0003A0059462800FFF745FA0700119B0133DC
:1047C0001193D3E61C9BDA1D07218A43110008319F
:1047D0001C91116853689C46DB170C930D930C9A3F
:1047E0000D9B100048400E90624653400F930E9868
:1047F0000F990C9A0D9B801A99410E900F91089475
:104800000A9B079353460693049600230593634639
:10481000DA0F02920090019143463A00594628006F
:10482000FFF76EFA0700C9E71C9A111D1C91126868
:10483000D317D118594005940A9B04935346039308
:104840000296D20F0192009143463A005946280041
:10485000FFF7F8F90700B1E7230605D51C9A111DEB
:104860001C910023D25E96E71C9A111D1C911268C0
:1048700091E71C9BDA1D07218A43110008311C9126
:1048800008940A9B079353460693049600230593C6
:104890000293136854680093019443463A005946C2
:1048A0002800FFF72DFA070088E71C9A111D1C91BC
:1048B00005940A9B049353460393029600230193A5
:1048C0001368009343463A0059462800FFF7BAF9A7
:1048D000070073E723060DD51C9A111D1C91126861
:1048E0001204120C31E7C04654A5001098A5001020
:1048F000E4A500101C9A111D1C91126825E746289A
:104900001AD01C9B0733072293431A0008321C92CB
:1049100004940A9A0392524602925C681B680093C0
:10492000019443463A0059462800FFF765FC07000A
:10493000119B0133119319E620231C43E1E76728FB
:1049400001D0472802D180231B011C43452801D0F8
:10495000472801D120231C431C9B07330722934384
:104960001A0008321C9204940A9A03925246029248
:104970005C681B680093019443463A00594628003E
:10498000FFF730FA0700119B01331193EEE5022384
:104990001A002240924623421FD001241C9B1A1D5C
:1049A0001C927A1C9146187843463A005946A8470B
:1049B0005346002B16D1119B013311934F46D5E579
:1049C000561C434659462020B847230032005C1C41
:1049D0009D42F5D83D001700E0E701233A002F0083
:1049E0000A9DF4E74A46A9460A9D06E0571C43463D
:1049F00059462020C84734003A00661CA542F5D825
:104A00004D469146D7E71C9B1A1D1C921B68994680
:104A10005346002B00D1013B4E4601E00136130006
:104A20003278002A02D05A1E002BF7D14B46F21AD8
:104A300010928023DB0026001E401C4203D052450A
:104A400001D95346109302231A0022400B922342AD
:104A500005D03A0037004C46A946554620E03A00BA
:104A6000109B5F46B3462E0006E0551C43463900B6
:104A70002020B04723002A005C1C0A999942F4D8F0
:104A800035005E46BB46109437004C46A946554655
:104A900006E01D000134561C43465946C847320003
:104AA0002078002804D0002FF4D06B1E002DF0D108
:104AB00017004D460B9B002B03D1119B0133119323
:104AC00054E50A9F109B06E0561C43465946202099
:104AD000A847230032005C1C9F42F5D81700ECE782
:104AE00021231C431C9B1A1D1C921B6800930594D8
:104AF0000823049353460393102302930023019346
:104B000043463A0059462800FFF79CF80700119BDE
:104B1000013311932AE57C1C43463A00594625206F
:104B2000A847119B0133119327001FE57C1C4346C6
:104B30003A005946A847119B01331193270015E508
:104B40000A4B9A4610E5AA46474502D343465A1EE9
:104B500000E03A00434659460020D047380013B0E1
:104B6000F0BCBB46B246A946A046F0BD513A001083
:104B700000B585B0029003910121009313004A42D1
:104B800002A90248FFF7E2FC05B000BD533A00104D
:104B900001480421014B1847700D0020C14B001043
:104BA00010B5010018231B8814221088984710BDE7
:104BB00010B5010018231B8816221088984710BDD5
:104BC000F0B5C64600B507000E0000250123984643
:104BD00000E00135B5420AD2AC003C192068FFF76D
:104BE000DFFF20600028F4D100239846F1E740461B
:104BF00080BCB846F0BD0000124A936F9B0815D2E6
:104C00009066D166002905D0FFE7FFE7FFE7516F07
:104C1000106F704704B580210906C2175140002863
:104C200000D0C84304F03CFD002104BDF0B5146E73
:104C3000556E576F166FFFF7E3FF1466556657679B
:104C40001667F0BD000000D0114A936F9B0813D285
:104C500010665166002905D0FFE7FFE7FFE7516FB7
:104C6000106F704704B5002801D00020C04304F045
:104C700017FD002104BDC046F0B5146E556E576F88
:104C8000166FFFF7E5FF1466556657671667F0BDA8
:104C9000000000D094464A4A926F9208624601D2C0
:104CA00028E0C046F0B5464E346E756E776F366FAD
:104CB00000F020F89446424A146655665767166716
:104CC0006246F0BD94463E4A926F9208624601D217
:104CD00054E0C046F0B53A4E346E756E776F366F5D
:104CE00000F04CF89446364A1466556657671667C6
:104CF0006246F0BD002B24DB11D000293EDA00B55E
:104D0000C943404200D1013100F038F8C943404264
:104D100000D10131DB43524200D1013300BD002AF2
:104D2000EBD1002801D1002905D00020C90FC90707
:104D300001D1C043410800B504F0A2FC00220023C9
:104D400000BD00B500290ADBDB43524200D101332C
:104D500000F014F8C943404200D1013100BDC943FD
:104D6000404200D10131DB43524200D1013300F017
:104D700005F8DB43524200D1013300BD002923D1A5
:104D8000002B18D1002A0CD0BC460D4F38667A662D
:104D900000210023FFE7FFE7FFE77A6F386F6746E0
:104DA0007047002801D00748010000B504F068FCF6
:104DB0000022002300BD02000B00002000217047EC
:104DC000000000D0FFFFFFFF002B00D0BFE0130C5E
:104DD00028D1002AE7D080B4114F39667A66FFE700
:104DE000FFE730B4040C7B6F396F1B0423433B6631
:104DF0007A66FFE7FFE7FFE7C04684B27B6F3D6F4F
:104E00001B0423433B667A66FFE7FFE7C0460023A7
:104E10002C042D0C7A6F386F00196941B0BC7047B3
:104E2000000000D0F0B594460025140E01D1120206
:104E30000835140F01D112010435940F01D19200ED
:104E40000235D40F01D152000135D40B0134254F66
:104E50007C66254C3C660E0C93B2FFE7FFE7FFE74C
:104E60003C6F6643360C7703BE467343DF0B5B042F
:104E7000C01AB941130C7343DB18C91ACE08664334
:104E8000360CB64493B273431F0F1B01C01AB941CD
:104E9000130C73431F0B1B05C01AB941860D8F02FB
:104EA0003E436643360C092D24DB520A7243801AB6
:104EB0007703460A6643360C16235B1BDE40DF4051
:104EC000BF1964466643821B7046043506330100F1
:104ED000D940A840C01900D30131A24206D2002314
:104EE000F0BD0000000000D0FFFFFFFF121B0130EB
:104EF000F3D3F1E709277F1BFE406446A2B2724359
:104F0000801A00D20139220C7243130C1204821A47
:104F100099410B007046043513370100F940A84051
:104F2000801900D30131002B02D1A2420AD2F0BD78
:104F3000013000D30131121BFAD2013BF8D1A24259
:104F400000D2F0BD013000D30131121BF7E7F0B5FC
:104F50001C0C00D080E00CB400251C0A04D11B02FC
:104F6000160E3343120208351C0B04D11B01160F19
:104F70003343120104359C0B04D19B00960F33433D
:104F800092000235DC0B02D192185B4101351C0006
:104F9000971864410134464F7C66464C3C660E0CC3
:104FA000FFE7FFE7FFE7C0463C6F6643360C770339
:104FB000BE4697B27743C01B00D20139C01B00D256
:104FC00001399FB27743C91BC91B170C77437E0475
:104FD000FF0B801BB941CE086643360C0C2D33DB2A
:104FE000B644120B1F053A431B0B97B27743C01B05
:104FF00000D201399FB27743C91B170C77433E0497
:105000003F0C801BB941860D8F023E436643292722
:105010007F1BFE400C3D7746AF40BF1930BCA2B2AB
:10502000ABB272437343801A9941220C7243130C42
:105030001204801A994102000B000137001BA9419C
:10504000F9D2781E0021F0BD0C277F1BFE40774669
:105050007F0BAF40FF19E0E700245D1C07D0144F21
:105060007D663966FFE7FFE7FFE7FFE73C6F95B234
:105070009EB265436643401BB141150C1E0C65434F
:10508000664336042F0C3E432D04401BB141994228
:1050900004D202000B0020000021F0BD01D190429B
:1050A000F7D3801A994101349942F2D3F6E7000010
:1050B000000000D0FFFFFFFF48404140484018B4C7
:1050C0001B4B5B68FC46019308BD04DFAB5300102B
:1050D00018B4174B1B68FC46019308BD00DFB5539D
:1050E00000109446134A926F920809D2624618B48F
:1050F0000F4BDB68FC46019308BD0CDF6D560010BA
:105100000C4AF0B5146E556E576F166F6246FFF776
:10511000EEFF084A1466556657671667F0BD18B467
:10512000034B9B68FC46019308BD08DF1155001036
:1051300040230020000000D0FFB5504042405040C6
:1051400059404B40594000E0FFB5154F4C00640DED
:1051500003D0BC4204D10C0314D80020090D09056A
:105160005C00640D03D0BC4204D11C030AD80022A9
:105170001B0D1B0501264B4009D44B4003D58B4228
:1051800000D18242FFBD9942FCD19042FFBD0B434A
:10519000DB1803431343F5D0C9434918FFBD000092
:1051A000FF07000000B5FFF7CFFF804100BDC046FC
:1051B00000B5FFF7C9FF01D9002000BD012000BDE7
:1051C00000B5FFF7B9FF01D9002000BD012000BDE7
:1051D00000B5FFF7B1FF804100BD012040054A0046
:1051E000121804D85A00121801D800207047012064
:1051F00070470020704700000021002805D170474B
:10520000C1174840401AFAD0C90713B5064B1B68AE
:1052100098470CBC441CA2401005120B0349091B03
:1052200009051943114310BD502400201F0400003C
:1052300010B54C00620D8023D218DB00D21A5B053A
:105240007E2A10DD9E3A13DACC1709034908194368
:105250005242D140640001341532202A05DAD04090
:105260000843604310BD002010BD0846604310BDD8
:10527000C80FC018013810BD18B4044B5B6AFC4657
:10528000019308BD24DF1D580010000040230020BA
:1052900018B4044BDB6FFC46019308BD7CDF9D58BE
:1052A000001000004023002070B513231C78012C4F
:1052B00014D0012C14DC022C02DC1F4A1F4B9A6410
:1052C0001F48FFF76DFC1F4B186070BD99001A480E
:1052D0001A4A885001331F2BF8D9EAE70023FAE76E
:1052E0001948FFF765FC05001848FFF761FC023814
:1052F00003789B007F2B19DD802229000F4800F0E6
:105300006BFD022CD7D1124B1A88B5231B029A428F
:1053100009D1104B1A88104B9A4204D10F4B1A88AE
:105320000F4B9A42C7D00020FEF77AFB0D4B0E4A76
:1053300032210E48FEF7DAFA7153001040230020A4
:105340004C3300005024002053440000534600001A
:1053500054380000D8380000494600009C3800004E
:105360005946000088A7001040A80010DCA70010D4
:1053700007B56046002800D100BE01880A0A023045
:10538000DF2AFAD1C9B2820804D302884088000417
:10539000104300E00068024A5050039007BD00002F
:1053A000402300200FB403BC0CBCF0B50124E4077B
:1053B000634000E0F0B50C0DCF0F661E3605891B6B
:1053C000640503D3C943404200D30131640D03D0C7
:1053D000661CF60A07D0E41B00207F00791C8907B1
:1053E0008912803C24031D0DDF0F6E1E36059B1BAA
:1053F0006D0503D3DB43524200D301336D0D03D05F
:105400006E1CF60A07D0ED1B00227F007B1C9B0759
:105410009B12803D2D032F1B661B58D4A446202EC3
:1054200046DA20371400BC401D00BD40F240334135
:105430002A4380185941CB0F05D0C943C0430022ED
:1054400064425041514162464D0D28D10D0D07D1A6
:1054500000281FD0241940414941013A0D0DF9D0CF
:10546000640006D3013000D30131002C01D1400883
:105470004000013A0BD4941CE40A04D112051144F3
:10548000DB071944F0BDD907204B194300E0D907C9
:105490000020F0BD0029DDD1002CDBD1F0BD0132B0
:1054A000C6074008CD0728434908002EE1D0D9E7B8
:1054B0003C2E29DA203E40371400BC4000D00124A5
:1054C000F24014431A00BB401C43D317ACE7AC4670
:1054D000202F08DA20360400B4400D00B540F84013
:1054E00039412843A5E73C2F0CDA203F4036040021
:1054F000B44000D00124F84004430800B1400C43FC
:10550000C117EAE710001900002494E70000F07FBB
:10551000F0B50C0D661E3605891BE60A6405640DA0
:1055200002D0651CED0A04D0002001210905803C51
:105530002403A4461C0D671E3F05DB1BE70A640518
:10554000640D02D0651CED0A04D0002201231B0566
:10555000803C24037740644497B484B296B2744389
:10556000070C7E43150C6F4380B26843361802D394
:10557000012000043F183004350C00197D41844699
:1055800088B29AB250430C0C62431F0C7C438EB21B
:105590007E43921902D301263604A4191604170C6F
:1055A0003618674101BC81B29AB25143040C624380
:1055B0001B0C5C4380B25843121802D30120000434
:1055C00024181004130C401863412D185E4100206C
:1055D000474106BC88B293B258430C0C6343120C8B
:1055E000544389B251435B1802D301210904641862
:1055F00019041A0C091862416D18564100204741E0
:1056000018BCF902720D1143F0026A0D1043ED024D
:105610000A0D03D16D1940414941013B124E9B1BBC
:105620007600B3420ED26D0007D3013000267141DF
:105630006646354301D1400840001B05C918E40700
:105640002144F0BD0BDA013306D1013004D1013120
:105650004F0D01D04908F2E7E1070020F0BD013607
:1056600031050020EBE70000FF030000F0B51C0D42
:10567000671E3F05DB1BE70A6405640D02D0661C4C
:10568000F60A04D0002201231B05803C2403D02508
:105690002D060026F6432E661E096E66CE0FF619FD
:1056A000B44649004F0D02D07E1CF60A03D00020FC
:1056B0000021403F3F033E1BB600B444013F7F053D
:1056C000C91B49082E6F013676089C02950D2543AB
:1056D0007543ED137543AD1301356D10F603761B5D
:1056E0000CB4CC02450D2C43A2B2B3B25A43270CE2
:1056F0007B43350C6F43A4B26C431B1902D30124C6
:1057000024043F191C041D0CA4187D4124196D416B
:10571000009A91B2ACB26143170C7C432B0C5F43EF
:1057200092B25A43A41802D301221204BF182204D1
:10573000230C52187B41019C6C431B19520ED9015A
:105740000A434401A01A81B2B2B2514303145A432E
:10575000360C734387B27743D617D21900277E41A0
:1057600036049B191704160C7F185E417316ED184A
:10577000F301002680337541A90F06D16400690A40
:10578000E8055B0A184309D22FE0042294448033D1
:105790007541A90AA8059B0A184326D340414941EF
:1057A0002404009A019B0D005543641B4343E41AF3
:1057B00095B286B27543170C7E43030C5F4392B2D9
:1057C0005A43B61802D301221204BF183204330C14
:1057D00052197B4152429C41002C02D400220130DC
:1057E00051414008CA071043490802B06246D70732
:1057F0009210084BD218084B9A4203D2120589180E
:10580000C919F0BD0020002A01DC3900F0BD0133C8
:105810001905F5E7FD030000FE070000002200B5B2
:10582000203200F004F8080000BD000000220B1533
:105830000AD410B5944600F05FF81414013400DA6D
:105840000021CB17144C20470020002170476244F0
:10585000343A0CD40C2A07DA0400914090405242AA
:105860002032D440214310BDD843D94310BD20324B
:1058700007D40C469440524220321141D04020437C
:1058800010BD0800C917203203D452422032104103
:1058900010BD1800190010BD4F5800104A00520DDD
:1058A000144BD21A13DDFF2A1EDAD205CB0FDB0709
:1058B0001A43C300400F0903490A084310435B0021
:1058C00001D301D0013070474308FBD2704702D0AA
:1058D000C80FC00770470A0312130132F8D1420FF4
:1058E000072AF5D1012200E0FF22C80F000280182C
:1058F000C0057047800300000A0DCC0F531E1B0526
:10590000C91A520503D3C943404200D30131520D95
:1059100003D0531CDB0A07D0121B00206400611C5B
:1059200089078912803A1203014BD21A704700008E
:10593000FF03000051434343C9188C46110C83B246
:105940004B4310B4040C614392B280B250436243A3
:105950001C041B0C001910BC59411304120CC01874
:105960005141614470470000484041404840002395
:105970009C46114B5B68184700239C460E4B1B68E6
:1059800018470E4A936F9B0804D200239C460A4B8B
:10599000DB681847F0B5146E556E576F166FFFF73A
:1059A000F4FF064A1466556657671667F0BD002374
:1059B0009C46014B9B68184754240020000000D0EF
:1059C00007B548404140484001E0C04607B54200A5
:1059D000120E03D0FF2A03D1420218D8C00DC00511
:1059E0004A00120E03D0FF2A03D14A020FD8C90D74
:1059F000C9050122414005D4414001D5814207BD7E
:105A0000884207BD0143491801D0C043001807BDB3
:105A100000B5FFF7DBFF804100BDC04600B5FFF7D2
:105A2000CFFF804100BD000000239C46014B1B6B53
:105A30001847000054240020034BDB6FFC46184736
:105A40007CDF315D00100000542400204100090E6D
:105A5000862904DA00239C46044BDB6B1847044973
:105A600000B500F046F902BC8E46F3E7542400204E
:105A7000DB0FC9404100090E862904DA00239C4649
:105A8000044B1B6C1847044900B500F032F902BC06
:105A90008E46F3E754240020DB0FC94070B5132372
:105AA0001D782A48FFF784F80400012D11D0012D3C
:105AB00009DDA31E1B789B007F2B40DD8022210087
:105AC000234800F089F92348FFF76AF8224B186051
:105AD00070BD542201001E4800F07EF91F4B1A8849
