:020000041000EA
:1000000000B5324B212058609868022188439860DF
:10001000D860186158612E4B002199600221596106
:100020000121F02299502B49196001219960352056
:1000300000F044F80222904214D00621196600F024
:1000400034F8196E01211966002018661A6600F04E
:100050002CF8196E196E196E052000F02FF8012189
:100060000842F9D1002199601B49196000215960AB
:100070001A491B48016001219960EB211966A021F2
:10008000196600F012F800219960164914480160C1
:100090000121996001BC002800D000471248134993
:1000A000086003C880F30888084703B5996A0420EC
:1000B0000142FBD001200142F8D103BD02B5186610
:1000C0001866FFF7F2FF186E186E02BD00000240BE
:1000D000000000180000070000035F00212200005C
:1000E000F4000018222000A00001001008ED00E03C
:1000F00000000000000000000000000074B24E7A12
:1001000000200420F7010010C3010010C5010010F9
:10011000C1010010C1010010C1010010C101001097
:10012000C1010010C1010010C1010010C701001081
:10013000C1010010C1010010C9010010CB01001065
:10014000CD010010CD010010CD010010CD01001037
:10015000CD010010CD010010CD010010CD01001027
:10016000CD010010CD010010CD010010CD01001017
:10017000CD010010CD010010CD010010CD01001007
:10018000CD010010CD010010CD010010CD010010F7
:10019000CD010010CD010010CD010010CD010010E7
:1001A000CD010010CD010010CD010010CD010010D7
:1001B000CD010010CD010010CD010010CD010010C7
:1001C00000BE00BE00BE00BE00BE00BEEFF3058054
:1001D000103800BEF2EB887178BF0010B8BF001075
:1001E0003402001090A31AE700201F49086006C8D7
:1001F00081F3088810471D48006800282FD10DA4FE
:100200000ECC002902D000F012F8F9E71849194A7B
:10021000002000E001C19142FCD1174988471749ED
:1002200088471749884700BEFDE701C901C29A42C5
:10023000FBD37047B8BF0010C0000020A0160020FC
:1002400098D50010000004200000042098D500106C
:10025000001004200010042000000000704709482E
:1002600004F0D4FF0047000008ED00E0000000D0DB
:10027000A016002010260020953F001095080010C1
:10028000513F00105756000006005250ABB3605368
:10029000F0B5001006005250861C030200B6001094
:1002A000060052505422A29D14B600100500525070
:1002B000DE65F46898D50010F8B5C04610B5064C58
:1002C0002378002B07D1054B002B02D0044800E017
:1002D00000BF0123237010BD601800200000000043
:1002E00010A40010044B10B5002B03D003490448A0
:1002F00000E000BF10BDC0460000000064180020F0
:1003000010A40010024B01221A7001207047C04651
:100310000C260020024B01221A7001207047C046B3
:100320000D26002070B5052118480AF031F8002884
:1003300001D1012070BD164C1649200001F084FC4B
:10034000124809F0FDFF0023E05E03003C339BB23E
:10035000782B16D9104B584305F088FA0F4C2060C3
:100360006160E022D2050E4B05F0F1F9206061607A
:100370000C4D2A686B6805F0E1F920606160286027
:100380006960094B01221A70D3E7C0467C23002024
:10039000FC250020F81C002010270000A0160020DB
:1003A000F700CC41A81600200B260020F0B5DE4651
:1003B00057464E46C0B59EB00521052001F064FCAD
:1003C000052001F093FCD024240620256562FA2044
:1003D000C00002F09FFE65610221012002F042FC94
:1003E00082460023089305931EE2032D0CD10F23B0
:1003F0000E221321122001F09FFA05E0132312228E
:100400000B210A2001F098FA0023D04A1360D04A49
:100410001360D04A1370D04A002000211060516050
:1004200010AA02920193CD4B00939622D200002392
:10043000504602F06BFD099F002600239946AB460B
:100440003500089E38E01B231A220F210E2001F0F0
:1004500073FAD9E75B46DB0016AA94466344186832
:1004600059683A0001F0C6F9BD4809F069FF33E068
:100470005B46DB0016AA94466344B74A116852688B
:1004800019605A600AAB029300230193B54B0093A5
:10049000B54A0023504602F039FD002705E001234C
:1004A0005B429C46E14400E02500B04B00221A70FC
:1004B000AF4B1B78002B24D1AC4B1B78DCB2002B4C
:1004C000F6D0A54B1E685B680593FA214900A44845
:1004D00009F01EFF0028BDD1002FC9D1002DE3D0A7
:1004E0003200059B9C490868496805F01EF9002206
:1004F000002305F08DF90028D1D101239C46E14469
:10050000D3E75D46089610A802F04CFD0AA802F059
:1005100049FD914B1E685F680022964B3000390000
:1005200005F015F905F0BAF904000022914B08987E
:10053000059905F00CF905F0B1F9241A089A059B04
:100540003000390005F0F1F808900691059100227D
:1005500000230898059905F05BF900283ED1864AEA
:10056000864B0898059905F059F9002807D1844A67
:10057000844B0898059905F061F9002835D0EA0008
:10058000814B9B1800200021186059600023784A95
:100590001370764A13707D4C200009F031FF28005B
:1005A00001F042FA200009F0CBFE280000F0D8FF4D
:1005B0000135032D00DDB1E0022D00D143E700DD60
:1005C00013E7002D00D119E7012D00D01CE70B2304
:1005D0000A221B211A2001F0AFF915E7069B8022A1
:1005E0001206944663440593B9E7032C2ED04B467C
:1005F000002B2BDB0022664B3000390005F008F998
:10060000002857D0514B186805F030F902000B0054
:1006100005F094F80690079100225E4B30003900F7
:1006200005F095F802000B000698079905F086F88A
:10063000594A5A4B05F0A9F80022594B05F0A5F884
:10064000EA00514B9B18186059609FE732003B004D
:100650000020544905F069F806000F003E4B1E606B
:100660005F603A4B186805F001F902000B0005F0D5
:1006700065F8069007910022464B3000390005F0DE
:1006800066F802000B000698079905F057F8424AF1
:10069000424B05F07AF80022414B05F076F80C0049
:1006A000EB003949C91802008020000623180A60AF
:1006B0004B606BE732003B0000203A4905F035F80B
:1006C00006000F00244B1E605F60204B186805F089
:1006D000CDF802000B0005F031F8069007910022DA
:1006E0002C4B3000390005F032F802000B00069860
:1006F000079905F023F8284A284B05F046F8002210
:10070000274B05F042F80C00EB001F49C918020006
:100710008020000623180A604B6037E71B4809F069
:100720006FFE214B1B78002B09D1002541E01E4BA9
:1007300001221A701D4B1B68052B00D189E013485C
:1007400009F0FEFD0024250033E7C0469023002079
:10075000681F002007260020B016002005030010A7
:100760007C230020150300106A1800000C260020CE
:100770000D260020008056409A9999999999C93F71
:10078000CDCCCCCCCC7C764040180020742300200B
:1007900000407540008066407A008BFCFA210940D9
:1007A000000064400080764009260020EC1E0020F6
:1007B0000135032DBEDCEA002B4B9B181E685F68D9
:1007C00000222A4B3000390005F022F80028AED074
:1007D0000022274B3000390005F030F80028A6D061
:1007E000032DE5D1234A136801331360E0E7EC00E1
:1007F000214A121900200021106051601F4B1B1963
:1008000000201F4918605960280000F0A9FE01353A
:10081000032DECDD00231B4A13701B4A1370154A8D
:1008200013601A4809F08CFD174B1B78DAB2099255
:10083000002B87D1D0231B0620225A61144809F0CF
:10084000DFFD114B1B78002B05D1114809F078FD15
:10085000F4E70025DCE70E4809F072FDD0231B0603
:1008600020229A61E0E7C0462018002000001440D2
:10087000000014C0EC1E0020E0170020500C0020E7
:1008800000708740082600200926002074230020DD
:1008900084230020F0B5C64600B5B4B006F01CF9BC
:1008A000C64801F019FEC64801F016FEC54801F021
:1008B00013FE00F037FEC44802F02CFC00F0E2FE0C
:1008C00001F04EF801F072F90024272C08D8BF4936
:1008D000BF4801F0B9F9052002F01CFC0134F4E72F
:1008E0000921082000F0F2FABA4808F07FFD002440
:1008F0003194329433942E942F9430942B942C94DE
:100900002D94289429942A9425942694279422940B
:100910002394249402F0B2FC089009910026002749
:100920001E961F97209621971B941C941D940A963F
:100930000B97069607970023984620E2A64B186867
:1009400004F094FF0022A54B04F001FF00220023D5
:1009500004F0F4FEA24AA34B04F017FF04000D00BC
:100960001D9805F075FD22002B0004F0E7FE04F051
:10097000D1FF1D909C4B00221A60DDE1964B186858
:1009800004F074FF994A9A4B04F0FFFE04000D0036
:100990001B9805F05DFD22002B0004F0CFFE04F053
:1009A000B9FF1B90904B00221A60C5E1914B18686B
:1009B00004F05CFF0022894B04F0C9FE00220023F2
:1009C00004F0BCFE864A874B04F0DFFE0A900B91D0
:1009D000814B186804F04AFF874A884B04F0D5FE23
:1009E00005000E0006950796319805F031FD1E9022
:1009F0001F91329805F02CFD2A00330004F095FE7B
:100A00002090219102F03AFC08900991764B002247
:100A10001A60270090E102F031FC089B099CC01A83
:100A2000A14104F06BFF764A764B04F0AEFE04F071
:100A300071FF754905F0C7FC061C05F027FD05F0A0
:100A400007FD069A079B04F0A0FE02000B001E980B
:100A50001F9904F073FE04F05DFF1B90209C219D04
:100A6000301C05F0FFFC05F0F3FC069A079B04F030
:100A70008CFE02000B002000290004F05FFE04F051
:100A800049FF1C90301C05F0E3FC0A9A0B9B04F014
:100A9000D5FE002800D152E1002750E12EA9930095
:100AA0002BA85C581C5022A8185858500132022A12
:100AB000F4DD564B1868596804F02CFF339000247D
:100AC00009E0A5001BABE85831ABE95805F05BFC29
:100AD00022AB58510134022CF3DD384809F090FC68
:100AE0000025032D54DC249B059380231B06059AC7
:100AF000944663441900059805F065FC05F0A8FCD0
:100B000004F014FF0022424B04F03FFEEC00414B86
:100B10001B191A685B6804F011FE3F4B1B19186023
:100B20005960249B059380231B06059A94466344D1
:100B30001900059805F047FC05F08AFC04F0F6FE64
:100B4000364A374B04F021FE364B1B191A685B6896
:100B500004F0F4FD344B1B1918605960249880236D
:100B60001B06C11805F02FFC05F072FC04F0DEFE38
:100B700000222E4B04F009FE2D4B1B191A685B68EE
:100B800004F0DCFD2B4B1C19206061600135A8E7E7
:100B90000A4809F0D5FB28AC019425AB009331AB92
:100BA0002BAA2EA922A800F0F1FA10AB0DAA31A9A8
:100BB000200000F0C5F900244BE0C046742300205B
:100BC0007C23002084230020B80B0000F81C0020A8
:100BD000FC250020AD030010F425002000806640B5
:100BE0007A008BFCFA210940B4240020BA490C0297
:100BF0002B87963FF82500209CC420B07268913F57
:100C00008DEDB5A0F7C6B03EDB0F493FA016002022
:100C100000002440100D0020F00C00209A999999B2
:100C20009999A93FD00C0020B00C00200000E03FB3
:100C3000900C0020700C0020A50025ABE8586549F9
:100C400005F0C1FB011C31AEA85905F0A1FB7051A4
:100C50000134012CF0DD05215F4809F099FB0028E3
:100C600057D05E4B1B78002B6BD0229805F0F0FB21
:100C700004000D005A4A5B4B04F0E0FD002830D020
:100C8000574A594B2000290004F0C2FD002828D003
:100C9000239805F0DDFB04000D00514A514B04F090
:100CA000CDFD00281DD04E4A4F4B2000290004F0F6
:100CB000AFFD002815D0249805F0CAFB04000D00F4
:100CC0004A4A4B4B04F0BAFD00280AD0474A494B28
:100CD0002000290004F09CFD002802D0464B002291
:100CE0001A70109805F0B4FB444C206061601198B4
:100CF00005F0AEFBA060E160129805F0A9FB206151
:100D00006161139805F0A4FBA061E161324809F02C
:100D100017FB3B4B1B78DCB2002BFAD0384B002280
:100D20001A70384B1B68012B00D107E6022B00D14B
:100D300024E6032B00D139E6002F00D06BE6002219
:100D4000B5E6B84614A802F02DF92D4B00221A7012
:100D5000002200232C490A604B602C490A604B603A
:100D6000002133911D9125490A604B608A60CB6058
:100D70000A614B618A61CB61174809F0E1FA174BB0
:100D80001B78002B01D04746C3E70121152001F055
:100D9000BDF830BF114B1B78002BF0D01C4C20004D
:100DA00009F02EFB144B01221A70200009F0C8FA3A
:100DB0000021152001F0AAF801F03EFF14AB0293C8
:100DC00000230193134B0093134A002302F09EF873
:100DD000D5E7C04617B7D138742300200826002075
:100DE0009A9999999999B9BF9999B93FF6402B3039
:100DF0006475BBBF6475BB3F09260020B81700208F
:100E00000B260020B4240020A8160020A0160020E5
:100E1000842300202503001010270000F0B5C646EB
:100E200000B582B0244B802292031A6038E06B46F2
:100E3000DA790A2A16D021490B78DCB20133DBB209
:100E40000B701F4B1A5502006B46D91D002AEED1BC
:100E50001C4B9B69DB06FBD41A4B1B680B700132E1
:100E60000131F3E7154D2B78DBB215480026C65447
:100E7000154F390009F01EF804003900002009F070
:100E800019F808F095FC80463900002009F012F8A6
:100E900008F08EFC02004146200000F06BFA2E7034
:100EA000084B9B691022100018401A42CBD002B0A8
:100EB00080BCB846F0BDC04680E200E001260020BC
:100EC000101E00200080034010A4001070B5060022
:100ED0000D009621174C8901200002F0BBFD002374
:100EE00001220821200002F083FD0021200002F0F1
:100EF00095FD0221300000F0C7FE0221280000F01D
:100F0000C3FE642002F006F95023A363636B38220A
:100F10001A40094980235B010B431A6007491520D9
:100F200001F01EF80121152000F0F0FF642002F00E
:100F3000F1F870BD00800340348003401D0E0010A6
:100F4000F0B5DE4657464E464546E0B59BB0040038
:100F500090461D008E68301C05F084FA834611907F
:100F6000301C05F093FA009003008022120694468C
:100F70006344019312930023139314905A461592DD
:100F8000169317931893FE239B05199376490591A1
:100F9000764B99460693764E0796764B9A4608937B
:100FA0004B4609930A96744B0B93744F0C970D960E
:100FB0000E970F971096206805F005FA02904946A3
:100FC000606805F000FA011C029805F0E1F9029052
:100FD000311CA06805F0F7F9011C029805F0D8F95A
:100FE000029028605146206805F0EDF98246494696
:100FF000606805F0E8F9011C504605F0C9F9814622
:10100000311CA06805F0DFF9011C484605F0C0F965
:10101000824668605849206805F0D5F98146391C38
:10102000606805F0D0F9011C484605F0B1F9814629
:10103000311CA06805F0C7F9011C484605F0A8F965
:101040008146A860391C206805F0BDF90390391C61
:10105000606805F0B8F9011C039805F099F9071CC0
:10106000311CA06805F0AFF9011C381C05F090F99F
:10107000061CE8604249029805F0A5F9286040493D
:10108000504605F0A0F968603D49484605F09BF9D7
:10109000A8603B49301C05F096F9E8600027A1469E
:1010A0002C0008E03749281C05F0BEF9002801D0C3
:1010B000344B33600137032F0BDCBE00A6193568B3
:1010C0003149281C05F0B6F90028EBD02E4B3360CF
:1010D000F0E74C462168584605F075F9051C616833
:1010E000019805F070F9011C281C05F051F9051C48
:1010F0000021A06805F067F9011C281C05F048F9DB
:10110000434618602168009805F05DF9051C616888
:10111000584605F058F9011C281C05F039F9051C42
:101120000021A06805F04FF9011C281C05F030F9DA
:10113000434658600021206805F045F9051C002150
:10114000606805F040F9011C281C05F021F9A16830
:1011500005F01EF9434698601BB0F0BCBB46B24692
:10116000A946A046F0BDC046ED2CD5C16327764107
:10117000153B3140ED2CD5419A0EAE419A0EAEC1D1
:101180000000A040000016C300001643F0B5DE4684
:1011900057464E464546E0B59FB007009D681BAADE
:1011A0006D4B13CB13C2281C05F05CF9041C129084
:1011B000281C05F06BF9804680231B0643449A46A1
:1011C000139300231493159016941793189319935F
:1011D000FE239B051A930025A346289C0FE0AE0032
:1011E0005E49B85905F0EFF81BABF15805F0EBF884
:1011F0000FAB9851AB000FAA9A58E2500135022D5F
:1012000019DCECD1AB00F85805F022F9544A554BE3
:101210000090019104F0FCFA0028E0D0504A524BB3
:101220000098019904F00AFB0028D8D0AB000FAA5F
:1012300000219950DEE75C4606944346079300255B
:101240000895534609930A940B950C950D95FE232A
:101250009B050E930F9B9946191C584605F0B3F851
:10126000061C109F391C504605F0ADF8011C301CBF
:1012700005F08EF88246119B9B46291C181C05F030
:10128000A2F8061C011C504605F082F8039049465E
:10129000404605F098F88046391C201C05F093F86C
:1012A000011C404605F074F8011C301C05F070F874
:1012B0000490291C484605F086F8041C291C381C9B
:1012C00005F081F8011C201C05F062F8011C58464D
:1012D00005F05EF8051C05900024299E09E02349CD
:1012E000381C05F0A1F8002812D0A3001F4AF250C4
:1012F0000134012C0FDCA30003AA9F581C49381CA1
:1013000005F098F80028EAD0A300194AF250EFE758
:10131000A300F750ECE78221C905281C05F08AF8E4
:1013200000280AD08223DB05299A93601FB0F0BC05
:10133000BB46B246A946A046F0BDC1210906281CFD
:1013400005F072F8002804D0C1231B06299A936087
:10135000ECE7299B9D60E9E714A400100000C84257
:101360009A9999999999B93F9999B9BF000020C163
:101370000000204110B50378542B06D00378442B8D
:101380000BD00378432B13D010BD0F4B19600123F2
:101390000E4C23600E4C2370F0E70B4B19600D4B85
:1013A0001A600A4B02241C60094B013C1C70E8E7E0
:1013B000054B1960074B1A60044B03221A60044B5B
:1013C000023A1A70E0E7C046F4250020B424002059
:1013D00008260020F8250020F0B587B04008072433
:1013E0000440072935D9214803F03CFF8446204BAF
:1013F000984234D86B4600210091596099601022C0
:101400005A601C4A9A6003AA1500C1CBC1C5FA23D1
:101410001B0104933023039D9D43039563461804E9
:10142000000C0590144DA00003199B00595103199D
:101430009B00AC4663449960D96005991961049A90
:101440005A600123039A134300198000435107B0E7
:10145000F0BD0A4B0A4A13210A4802F07DFD0A4BEF
:10146000074A1721074802F077FDC04620A1070070
:10147000FEFF0000FFFF00000000054020A4001058
:1014800098A4001028A4001084A4001070B50600D1
:10149000042100F0F9FB730807251D4001231C00FF
:1014A0003440AA005219920019498C4662443342D2
:1014B00026D01021CD239B008B40002C22D0154933
:1014C000106843400B40802149010A4313601248D1
:1014D00001F020FEAB005B199B000D4A944663446B
:1014E000002C11D010210D4A8A40002C0ED0094941
:1014F000186842400A40802149010B431A6070BDC0
:101500002100D7E70649DBE72100ECE70449EFE7D4
:101510000C0005400000FFFFB80B0000EE020000C9
:10152000FFFF000010B532210020FFF755FF3221E8
:101530000220FFF751FF32210420FFF74DFF322137
:101540000620FFF749FF0020FFF7A0FF0220FFF76A
:101550009DFF0420FFF79AFF0620FFF797FF10BDBD
:10156000F8B50400C200344DAD18344B9B181A680E
:101570005B682868696804F0E1F806000F002E60D7
:101580006F6000222E4B04F059F9002818D000207B
:101590002B4928606960022C40D021DC002C2FD020
:1015A000012C3AD1244B9868D96804F077F983B2BA
:1015B000244A106843401B041B0C234A13602CE090
:1015C0000022224B3000390004F022F90028E2D03A
:1015D000E200194B9B1800201C4918605960DAE79B
:1015E000032C1AD1144B9869D96904F057F983B2C6
:1015F000174A106843401B041B0C164A13600CE08A
:101600000D4B1868596804F049F983B2124A106802
:1016100043401B041B0C114A1360F8BD064B1869AC
:10162000596904F03BF983B20D4A106843401B042A
:101630001B0C0C4A1360F0E7500C0020E017002050
:1016400000D88840200005402010054000808640DA
:1016500048000540481005400C0005400C100540AE
:10166000340005403410054078231A00024003423C
:1016700005D0782A01D0002002E0012000E00120FE
:101680007047000030B585B04E494F4808F04CF81F
:101690004E494F4808F048F803210A2000F0F4FAB8
:1016A00003210B2000F0F0FA002201210A2000F0B3
:1016B00003FB002201210B2000F0FEFA1F211A205B
:1016C00000F0E2FA1F211B2000F0DEFA00220121C7
:1016D0001A2000F0F1FA002201211B2000F0ECFAA0
:1016E0001F210E2000F0D0FA1F210F2000F0CCFAAD
:1016F000002201210E2000F0DFFA002201210F203C
:1017000000F0DAFA1F21122000F0BEFA1F21132088
:1017100000F0BAFA00220121122000F0CDFA0022D6
:101720000121132000F0C8FA0321142000F0ACFAC4
:101730000321152000F0A8FA00220121142000F056
:10174000BBFA00220121152000F0B6FA214805F06D
:1017500087F9214805F084F9002417E021001F488B
:1017600005F0AEF916E00023009301330F226A441E
:101770002900154808F010F8002801DB184810E08F
:1017800018480EE0184805F09BF901347F2C14DC52
:101790002307E3D0E5B22800FFF766FF0028E2D078
:1017A000104805F08DF9E217120FA1180F230B4016
:1017B0009B1A0F2BE6D00D48E5E70D4805F050F9D0
:1017C00005B030BD801A0600280E002040420F00F0
:1017D000300E0020A8A40010B8A40010ECA4001043
:1017E000A0A40010F8A4001020A50010A4A40010CC
:1017F000F4A4001070B586B0029003911500434820
:1018000005F02EF9424C012600960123414A36216B
:10181000200007F0B5FF009601230D2202A98C4697
:1018200062443621200007F0B7FF009601233A4AB0
:101830003621200007F0A4FF00230093013305AAFE
:101840003621200007F0A8FF02AB1B7B1B0202A978
:10185000487B184304F006F80022304B03F095FF54
:101860002F4B18605960002D27D1029A039B03F07B
:101870005CFF04000D002A4B1C605D600022002309
:1018800003F0C6FF00281AD10022264B244908681D
:10189000496803F05CFF04F001F8013080B2224B8C
:1018A0001A78904209D0022813D0032818D01F4B71
:1018B0001B68022B1BD01C4B187006B070BD002299
:1018C0001B4B2000290003F039FF154B18605960AD
:1018D000DAE7012AE9D115490B6801330B60E4E727
:1018E000022AE4D111490B6801330B60DFE70128BC
:1018F00004D00428DFD1012ADDD101E0042AF8D187
:101900000C4A136801331360D5E7C046FCA40010ED
:10191000300E002042A5001041A500100080B63F07
:10192000B01600200080564007260020681F0020C7
:10193000008076409023002070B50E0015001C003A
:10194000032100F0A1F90321300000F09DF91F21CF
:10195000280000F099F91F21200000F095F970BDD2
:1019600070B584B00F236B4400221A7000263DE04E
:10197000032E2ED10F230E2213211220FFF7DCFF9E
:1019800027E0132312220B210A20FFF7D5FF20E0C6
:101990001B231A220F210E20FFF7CEFF19E01E4D48
:1019A000012300931D4A3621280007F0E9FE0F2489
:1019B0006C4400230093013322003621280007F0F5
:1019C000EBFE2278711C164805F07AF80A2001F027
:1019D000A1FB0F236B441B789B06E0D50136310039
:1019E000104805F06DF81E2001F094FB032E11DC69
:1019F0000F236B4400221A70022EC9D0B8DC002ECF
:101A0000BFD0012EE5D10B230A221B211A20FFF79C
:101A100093FFDEE704B070BD300E002043A5001038
:101A200004A5001024A50010F0B5D6464F46464642
:101A3000C0B582B08146C3009846474B43441868FE
:101A40005968464B43441A685B6803F06EFE060013
:101A50000F00434B43449A461C685D68414B434426
:101A60001868596832003B0003F08FFE02000B003B
:101A70002000290003F062FE00223B4B03F067FECA
:101A800004000D0053461C605D60384B43441868E9
:101A9000596832003B0003F078FE02000B00200082
:101AA000290003F04BFE00900191314B43441C6828
:101AB0005D68304B43449A461A685B6830003900D1
:101AC00003F033FE0022284B03F05FFE02000B0000
:101AD0002000290003F059FE02000B000098019934
:101AE00003F02CFE04000D00234B43441C605D609A
:101AF00053461E605F600022204B03F09FFE0028CB
:101B000018D042461C4B9B1800201C491860596095
:101B10004B46D800184C24180022194B20686168E5
:101B200003F033FE2060616002B0E0BCBA46B1460B
:101B3000A846F0BD0022134B2000290003F068FEE8
:101B40000028E5D04B46DA000B4B9B1800200D49CE
:101B500018605960DCE7C04640180020B817002024
:101B600000180020B00C002000003940F00C0020CC
:101B7000700C002020180020E017002000003E40DC
:101B80000000D03F00003EC000B585B003AA117030
:101B900003125370907000230093033368210248AE
:101BA00007F0EEFD05B000BD280E002030B587B06F
:101BB00005AA6B2313801F4C00250095693B682103
:101BC000200007F0DDFD04AA1A2313800095183BBE
:101BD0006821200007F0D4FD03AA174B138000955D
:101BE00002236821200007F0CBFD02AA134B1380CB
:101BF000009502236821200007F0C2FD062110484D
:101C0000FFF7C2FF08210F48FFF7BEFFE1200A21BE
:101C1000C000FFF7B9FF13211320FFF7B5FF2F20F6
:101C200015214042FFF7B0FF17210520FFF7ACFF59
:101C300007B030BD280E00201C1000001B1800004B
:101C40001CFBFFFF99FDFFFF30B587B004000F229A
:101C50006A44472313700B4D463B009368212800CC
:101C600007F08EFD00230093023304AA68212800A8
:101C700007F092FD6B461A7C12025B7C13432380B3
:101C800007B030BD280E002010B58300084A9446E6
:101C900063441C6840226240C024144080225201E8
:101CA00013431C60C000034B9C466044416010BD60
:101CB00004C001400040014080000B4B9C46604442
:101CC00000290DD00823002A0CD0042213430268F7
:101CD00053400C221340802252011043036070478E
:101CE0000023F0E70022F1E704C0014010B5012312
:101CF0008340D0221206936293610521FFF7C4FF4F
:101D000010BD0000034B1B6802201840431E984181
:101D1000C0B2704700C00640EFF3108072B6034BAC
:101D20001B68002BFBD0BFF35F8F70472C0100D0E6
:101D3000BFF35F8F024B00221A6080F31088704758
:101D40002C0100D0F8B506000C001500FFF7E4FFE9
:101D5000E308F718F15C07222240012393400B426D
:101D600005D1DBB20B433B70FFF7E2FFF8BD21006A
:101D7000280002F08BF9F0B583B006000191140041
:101D80001F00FFF7C9FF00E00134BC420CD8E30894
:101D9000F518F35C0721214001228A401A42F3D151
:101DA000D2B21A432A7001E001246442FFF7C0FF57
:101DB000002C02DB200003B0F0BD019B002BF9D00A
:101DC000089802F063F90000002307E0054A9A181A
:101DD0009200BFF35F8F0021116001331F2BF5D9F3
:101DE0007047C04640000034054A1078431CDBB2FF
:101DF0001370172B02D9130010221A707047C046B7
:101E0000300D002000B583B00100044B00931F2368
:101E100018220348FFF7AFFF03B000BD74A5001000
:101E2000C01E0020074B9B68103080001950BFF384
:101E30005F8FBFF35F8F044B0021196082F310881E
:101E40007047C04600ED00E0240100D010B5091A2B
:101E5000081F0A4B9C466144094A914208D8C307AF
:101E600006D440104005400D064B184380B210BD0B
:101E7000054B064AA321064802F06EF8FC07000055
:101E8000FE0F000000E0FFFF90A500101CA800104E
:101E9000C0A5001010B5091A04394C08090B08D167
:101EA0004905490D064A11430180064B23434380EF
:101EB00010BD054B054AAB21054802F04DF8C04660
:101EC00000F0FFFF00F8FFFF1CA60010F0A70010B5
:101ED000C0A5001001238340034A10681840431E28
:101EE0009841C0B27047C04600E100E0002904D02C
:101EF000034B1860034B18607047034B1860FBE7F7
:101F000080E200E000E100E080E100E010B50123A4
:101F100083401800FFF7EAFF10BD00000123834053
:101F2000014A13607047C04600E200E0024B9B6824
:101F300010308000C058704700ED00E010B5FFF78A
:101F4000F5FF002805D0054BC01A2F2803D8012023
:101F500010BD0020FCE70020FAE7C046340D002049
:101F600070B504000D00EFF3108672B60C4B1B68C1
:101F7000002BFBD0BFF35F8F2000FFF7D7FF094B8B
:101F8000984201D0A84205D1320029002000FFF775
:101F900049FF70BD044B054A8621054801F0DCFF6E
:101FA000240100D0CD0100102CA6001050A8001074
:101FB000C0A50010F0B5DE4657464E464546E0B592
:101FC00089B0814601911500EFF3108A72B6744B07
:101FD0001B68002BFBD0BFF35F8F724B0027DF57CE
:101FE000002F40DB7C00E419A4006F48241806226F
:101FF000A2566C4B1A706D4B9A684B4610339B007F
:10200000D35898461E001B1A2F2B38D9684B984579
:102010002FD105AE674B33807B009B46D8198000DB
:10202000614B9846404402306349FFF70FFF7080D0
:10203000624BB380FF23B371F571019B07935F443B
:10204000BF0047440ECE0EC701231C43A046524694
:1020500041464846FFF7E6FE09B0F0BCBB46B24633
:10206000A946A046F0BD564B564AD721564801F026
:1020700073FF564B534ADE21534801F06DFFC043B6
:1020800040440C2103F016F9002912D101239E438C
:10209000B34633000026DA79AA4211D906215956EF
:1020A00000290CDB4A00521892001E003E4B9B1880
:1020B000F1E7474B434AEA21434801F04DFF1E0038
:1020C000002E3AD005AB434A1A80813A5A80062343
:1020D000F3560293002B17DA3F4805AB9B469880D6
:1020E000029A9A71DD71019A0792301D2100FFF763
:1020F000ADFEB080B7717B00DB199B002A4FFF1843
:102100005B4607CB07C7A2E77800C0198000264BC3
:10211000C0180430321DB388D90A1C2907D15B05C9
:102120005915023149005118FFF790FED5E72B4BA6
:102130002B4AB121244801F00FFF05AE1D4B33801F
:102140007B000293D8198000174A9046020042444F
:102150000392901C1849FFF779FE7080039A101DB6
:102160005946FFF773FEB0801E4B5A464146521A3D
:10217000524153431B0DB371F571019A0792029BB3
:102180009C466744BF0047440ECE0EC7114B5A46CB
:102190001380813B538001231C43A04657E7C04670
:1021A000240100D003260020340D002000ED00E0C3
:1021B000CD01001000A1FFFF640D002001BDFFFF55
:1021C00064A6001038A80010C0A500108CA600104E
:1021D000B4A600100148000001BD000028A70010AF
:1021E00028A80010AAAA0000F0B5CE46474680B540
:1021F00083B006000D00EFF3108872B6564B1B68D3
:10220000002BFBD0BFF35F8F544B9A68340010341F
:10221000A300D758524B9F4207D0AF4200D198E05D
:102220000197504BFB1A2F2B09D942463900300039
:10223000FFF7F8FD03B0C0BCB946B046F0BD3000B2
:10224000FFF748FE814600213000FFF75FFEBFF335
:102250005F8FEFF30581002901D08C4211D101235A
:10226000019C9C430022A368AB4212D00622A256D6
:10227000002A0DDB53009B189B002200394CE41808
:10228000F1E73621384B394AFF31394801F064FE15
:102290002200AB4256D106256557002D38DB6B0076
:1022A0005B199A002F4B9B189A68A260DA79E27149
:1022B00006229A56A2719B795BB2002B0FDA2D4849
:1022C000A0806B005B199B00264AD3182A4A11781C
:1022D0009971157049463000FFF718FEA5E7201DDB
:1022E0006B005B199B001F4A9B181A1D9B88D90A1B
:1022F0001C2907D15B055B15023359005118FFF704
:10230000A5FDDDE71D4B1E4AB121194801F024FE51
:10231000002912D1002A0ED0FF239371194B93800C
:10232000154A1378A371184B0E49641A644163432C
:102330001B0D1370CEE70A4FF2E7201D1349FFF77C
:10234000A9FDC7E76A21124B084AFF31084801F08E
:1023500003FE034F69E7C046240100D000ED00E012
:10236000CD010010340D002040A7001008A8001077
:10237000C0A5001001BD00000326002028A7001002
:1023800028A8001001BDFFFFAAAA00006E0D0020C2
:1023900074A7001070B5012101432E4BCB1A2F2BCF
:1023A00028D8EFF30583002B2BD0EFF3108C72B6F7
:1023B000294A1268002AFBD0BFF35F8F274A040026
:1023C000244D641B64416243120D54B2244A926846
:1023D0009B00D2588A421BD00022032A32D85300D5
:1023E0009B189B001B49CB189B795BB2A3421FD063
:1023F0000132F2E7C7211B4B1B4A49001B4801F081
:10240000ABFD92211A4B184AFF31184801F0A4FD88
:10241000134A92681749D150174B1A7882711C7071
:10242000BFF35F8F0C4B00221A608CF3108870BDD5
:102430000D005300991889006918FF268E710F4A04
:102440008A80E9E7D1210E4B074A4900074801F08D
:1024500083FDC046340D0020240100D0AAAA00004C
:1024600000ED00E07CA70010D4A70010C0A500106C
:10247000A4A70010CD0100100326002001BDFFFF1E
:10248000B0A700100022044B02E0044902C301324D
:10249000072AFAD97047C04600E400E080808080B7
:1024A00000B583B00100064B0093052300220548C8
:1024B000FFF761FC002801DB1F23181A03B000BDE1
:1024C000B8A700100E260020024B9C4661448900EC
:1024D000016070474000003410B50400FFF784FC31
:1024E00001002000FFF7F0FFFF232371BFF35F8F90
:1024F00010BD10B50400FFF777FC01002000FFF7C6
:10250000E3FFFF23237100236371BFF35F8F10BDCF
:10251000034B9C46614489000160BFF35F8F7047A5
:102520004000003410B504000120FFF76BFC0100EF
:102530002000FFF7EDFF10BD10B50C00CB68834203
:1025400007D108000B699847002809D02068616806
:1025500010BD5221054B064AFF31064801F0FCFC34
:102560000023E36000200021F2E7C046D0A900105C
:102570006CAC0010E4A9001070B505000C00080058
:1025800000F07CFF0949200000F0BCFEFFF72CFCA6
:10259000074B9C466044800068602C75D0231B0666
:1025A0001B786B75A400034BE55070BDBD2800106F
:1025B000400000349C2300200A4B1A68EFF310817E
:1025C00072B61368002BFCD0BFF35F8F054B1B68FE
:1025D000BFF35F8F00221A6081F3108840BF002094
:1025E00000217047BC25002010B5002922D00368C7
:1025F0001B7B99421ED8174B9C4661440901836896
:102600009C4661440C684968002A19D003681B7B0A
:102610009A4215D883680F488446624412019A187A
:1026200010685368020001208B4201D80ED00020B0
:10263000C0B210BD084B094A3C21094801F08CFC8E
:10264000054B064A3C21064801F086FCA242EFD821
:10265000EDE7C046FFFFFF0F38AA0010D4AC001012
:10266000E4A9001010B500291ED0037B99421BD8A5
:102670004B005B18033B0468A4466344002919D04F
:10268000002A1DD0914221D0002A25D0047BA242ED
:1026900022D80468500080180338201881701978F7
:1026A00000291FD11A7010BD104B114A6821114822
:1026B00001F052FC104B114A6F310E4801F04CFCF6
:1026C0000F4B0E4A70210B4801F046FC0D4B0B4A94
:1026D0007121084801F040FC044B054A6821054877
:1026E00001F03AFC41701A70DDE7C0465CAA0010A8
:1026F00040AD001078AA0010E0AA00101CAD001038
:10270000ECAA0010F8AA001070B506000D00140025
:10271000002914D0002A14D08068736898470028D4
:1027200006D0220029003000FFF79CFF280007E0B8
:102730002A0021003000FFF795FF200000E0100084
:1027400070BD0800FCE70000F0B583B00500009202
:1027500001930AAB1C780BAB1F78002C26D00368C2
:102760005A7B944207D10123002B19D1002C3BD175
:10277000200003B0F0BD002C0CD01A7B944209D885
:102780001A6863001B19033BD3189B78002BEBD00E
:102790000123E9E73E4B3F4A68213F4801F0DCFB5B
:1027A0003E4B3F4A67213F4801F0D6FB03689C7BC4
:1027B000002CDBD012D01A7B94420FD86200121981
:1027C000033A19688C46624451789973002900D104
:1027D000D9730023937053701370C7E72C4B2D4AA5
:1027E00068212D4801F0B8FB002C3AD02B681B7BE8
:1027F0009C4236D82C4BE3181B01AA6894466344CC
:10280000009A1A60019A5A60089A9A60099ADA60E6
:102810002E68002C2BD030D0337B9C422DD8630007
:102820001B19033B32689446634400229A705A7025
:102830001A70717B22003000FFF766FF70738442CC
:1028400000D095E7287D009A019B00F0A3FD061EAD
:1028500001D0002F17D00C9B002B00D188E71E70F1
:1028600086E7124B124A3C210E4801F075FB114BD2
:10287000114AA521084801F06FFB054B054A682164
:10288000054801F069FB2868210000F0D1FFE2E76C
:102890005CAA001040AD001078AA001010AB001028
:1028A0004CAD0010E4A90010FFFFFF0F38AA001084
:1028B000D4AC0010E0A9001030AD0010F0B5DE4639
:1028C00057464E464546E0B58BB009900023089325
:1028D0008200B54BD658370052E0B44BB44A3F2182
:1028E000B44801F039FBB44BB44A3C21B44801F080
:1028F00033FB002901D1002869D10021404600F0B6
:102900008DFFA04219D12A686B6806920793AB68C5
:102910009846EB689A464346002B14D0002C18D0FA
:102920003B681B7B9C4214D8631EFA68D35C0893F7
:102930001B0218433861002015E0A24BA24A8E21E9
:102940009F4801F009FBA14B9F4A92219C4801F04E
:1029500003FB994B9E4A4121994801F0FDFA00235F
:102960009A46984600207B68BFF35F8F00221A606A
:1029700086F310884346002B32D1002800D10CE1A9
:1029800000F07CFC02000B1EA7DB0020002106905B
:1029900007917868EFF3108672B601680029FCD0C1
:1029A000BFF35F8F396888464C7B002CD7D09AD014
:1029B000097B8C4297D8874965182D01B9688C46E8
:1029C000654428686968801A9941002991DD2A6860
:1029D0006B68099800F0DEFC00239A469846C2E72F
:1029E000089B1B022343994651461800C047050027
:1029F0000E007A68EFF3108B72B6136859424B41A0
:102A0000D9B2002BF9D1BFF35F8F002E1EDB002E51
:102A100046DD3B69002B47D04B456DD100F02EFCC5
:102A200002000B1E6EDB52197341002B70DB002B72
:102A300072DB00210491013103910294514601910E
:102A4000414600913800FFF77FFE4CE03B69002BC8
:102A5000DDD04B4514D1069A079B521BB341002B86
:102A600014DB002B16DB0021049101310391029449
:102A700051460191414600913800FFF765FE32E072
:102A8000554B514AA1214E4801F066FA01225242AB
:102A9000524BE6E7454B464A3F21464801F05CFA77
:102AA000002E01D1002DB4D13B68002C50D05A7BB0
:102AB000944237D1012100294AD1DA7B002A4DD135
:102AC0009A7B002A03D1DA7B002A5AD19C73DC73EB
:102AD000002C5CD03B681B7B9C4258D8FA68013CB8
:102AE000135D0133135500233B617A68BFF35F8F99
:102AF00013608BF3108843E7374B334AA4213048E7
:102B000001F02AFA294B2A4A3F212A4801F024FAE7
:102B100001225242314B8AE7244B254A3F21254866
:102B200001F01AFA002C0DD01A7B94420AD86200E8
:102B30001219033A1868844662449278002ABAD07F
:102B40000121B8E7264B274A6821274801F004FAFB
:102B5000264B274AF621244801F0FEF9002A0AD024
:102B6000197B8A4207D851008A18033A19688C46A3
:102B700062445470A4E71A4B1A4A68211A4801F0BB
:102B8000EBF91C4B1A4AFB21174801F0E5F90A4BF7
:102B90000F4A41210A4801F0DFF90BB0F0BCBB46F7
:102BA000B246A946A046F0BD9C230020DCA8001038
:102BB000A0AC0010F8A8001038AA0010D4AC001087
:102BC000E4A9001038AB0010B8AC001050AB0010F6
:102BD000F8AC0010FFFFFF0F5CAB0010FFFFFF7FA2
:102BE0005CAA001040AD001078AA001098AB00104D
:102BF0000CAD0010BCAB001010B50C4B5B68002B8B
:102C000004D00A210A48FFF75FFC10BD074C2300DF
:102C1000084A1021206800F0FBFC032000F022FB92
:102C200003212000FFF7A8FCEBE7C0467C0D002045
:102C3000BC250020E925001010B5064B5B68002B71
:102C400001D0044810BD044B044A5E21044801F041
:102C500083F9C0467C0D0020D0AB0010E0AC001022
:102C6000E4A9001070B506000D00182003F084FDE3
:102C7000040002000B49280000F0D1FC2060102164
:102C8000280003F097FDA0600121280003F092FDC9
:102C9000E060300000F0E6FA31002000FFF76CFC45
:102CA000200070BDE9250010F0B5DE4657464E46BF
:102CB0004546E0B58BB0804616001F00149B9A462F
:102CC000159B994616AB1B789B461F2302AA944678
:102CD000634400221A702BE0002809D04246126893
:102CE000127B904204D8421E4146C9688A5C41E08A
:102CF000404B414A4121414801F02EF907984CE0F0
:102D0000361BAF41002F07DB002F11DA3C4B3D4A49
:102D10003F213D4801F020F9012676423B4FF3E781
:102D2000374B384A3F21384801F016F9002F4FDB66
:102D300043465A68EFF3108472B6136859424B4108
:102D4000D9B20791002BF8D1BFF35F8F1F3302AACE
:102D50009446634404930023039302934B460193E8
:102D60005346009332003B004046FFF7EDFC031E44
:102D7000B2D1020041464968BFF35F8F00250D6064
:102D800084F31088002B29D01F2302A98C466344AA
:102D90001B78002BB2D112021043002B20D05B46CF
:102DA000002B1DD04946D04704000D0003000B4303
:102DB0001DD00029A4DB00F061FA06000F1EAFDB76
:102DC00036196F41002FB1DA012676420F4FADE779
:102DD0000B4B0C4A3F210C4801F0BEF80120404249
:102DE0000BB0F0BCBB46B246A946A046F0BD079862
:102DF000F6E7C04638AA0010F8AC0010E4A90010AD
:102E0000DCA80010A0AC0010F8A80010FFFFFF7FA6
:102E1000F8B50400002900D162E04268EFF31085A4
:102E200072B6136858424341D8B2002BF9D1BFF3B0
:102E30005F8FCBB22268567BB3421BD101200028A2
:102E400048D0206988422BD0090AC9B2002B2ED065
:102E50002068007B83422AD8581EE668305C88428E
:102E60002BD000206368BFF35F8F00221A6085F3C8
:102E70001088F8BD002B0DD0167BB3420AD85E0037
:102E8000F618033E1768BC466644B678002ED6D0C6
:102E90000120D4E7134B144A6821144801F05CF870
:102EA0002C21134B134AFF31134801F055F8134BF3
:102EB000134A4121104801F04FF81900100000F0AA
:102EC000B7FC0028CED199210E4B0A4A49000A4886
:102ED00001F042F823698B42C4D100232361C1E78A
:102EE0000020C6E75CAA001040AD001078AA0010D0
:102EF000F4AB001088AC0010E4A9001038AA001050
:102F0000F8AC001018AC0010407D7047F0B585B0EB
:102F10000700100019000C9E13000B4301D1012083
:102F20000021B7600A9B3361306071600B9B736155
:102F3000CA1713005040040051400D00A41A9D41CF
:102F400000F09CF902000B1E12DB12196B41002BE2
:102F500014DB002B16DB0121029101960C49009134
:102F60003800FFF7A1FEF060C043C00F05B0F0BD10
:102F7000084B094A3F21094800F0EEFF0122524266
:102F8000074BE6E7034B044A3F21044800F0E4FF07
:102F900039250010DCA80010A0AC0010F8A8001023
:102FA000FFFFFF7F10B50400C168002901D1002098
:102FB00010BD8068FFF72CFF0023E360F8E70000F6
:102FC000F0B587B006000F00EFF30583002B1FD18B
:102FD00006246442E517A4197D418D4202D803D12D
:102FE000844201D900240025002D14DB04940595AA
:102FF00000F044F902000B1E13DBA41A9D41002DC2
:1030000017DC14D03000390000F044F907B0F0BDEF
:10301000234801F03BF8234B234A3F21234800F08B
:103020009BFF204B204A3F21204800F095FF002CB9
:10303000E8D0FFF701FE0023029301931C4B00939D
:10304000049A059BFFF730FE002818DADAE7002320
:1030500000E00023002BD5D1164B1A68EFF3108146
:1030600072B61368002BFCD0BFF35F8F114B1B6847
:10307000BFF35F8F00221A6081F3108820BF04998C
:10308000059A0D4B5B6A9A42E3D80B48806A8842E6
:1030900003D29A42DBD00123DCE70123DAE7C04602
:1030A0001CAC0010DCA80010A0AC0010F8A80010A8
:1030B000B9250010BC2500200040054070B5040073
:1030C0000D0000F0DBF802000B1E0ADB20002900D7
:1030D0008018594100290ADB00290CDBFFF770FF3B
:1030E00070BD084B084A3F21084800F035FF012019
:1030F00040420749F0E7034B034A3F21034800F0F1
:103100002BFFC046DCA80010A0AC0010F8A80010EF
:10311000FFFFFF7F10B5FA2292000023002103F089
:1031200015F9FFF7CBFF10BD70B584B005000C009A
:10313000EFF30583002B1ED1FFF77EFD00230293E2
:103140000193224B00932A002300FFF7ADFD061EDA
:1031500023DD20BFFFF770FD3100FFF759FE1C4B48
:103160005B6A9C422DD81A4A926AAA422CD29C428F
:1031700025D0012026E0164B5B6A994209D8144AF3
:10318000926A824207D2994201D001201AE00020BF
:1031900018E0002016E0012014E00D4B5B6A9C4211
:1031A00009D80B4A926AAA4207D29C4201D0012058
:1031B00008E0002006E0002004E0012002E00020FA
:1031C00000E0002004B070BD0120FBE7B92500102D
:1031D0000040054070B5EFF305801038EFF3108C18
:1031E00072B61A4B1B68002BFBD0BFF35F8F012216
:1031F0001300834016494B6316490B601649097842
:103200000C00C440224214D0114A546A8200134D6B
:103210005259944206D38200114C125999430E4BD5
:10322000197007E00A4A031D9B0099589950002223
:1032300000E00022BFF35F8F044B002119608CF384
:103240001088002A00D0904770BDC046280100D0E9
:10325000004005403C7005400A260020C82500209B
:10326000001D002010B50100024A0348FEF76AFD68
:1032700010BDC04664AD001002260020044B5B6AFE
:10328000034A906A1900536A9942F9D17047C046BF
:1032900000400540084B5B6A01E0074B5B6A8B42CC
:1032A000FBD301E0044B5B6A8B4203D1024B9B6A68
:1032B0008342F7D37047C0460040054070B5040014
:1032C0000D00FFF7DBFF02000B0020002900801833
:1032D00059418B4202D804D1824202D90120404296
:1032E000C117002902DBFFF7D5FF70BD024B034A6F
:1032F0003F21034800F030FEDCA8001028AE00108B
:10330000F8A8001070B504000D00EFF3108672B637
:103310001B4B1B68002BFBD0BFF35F8F002D1CD015
:103320002000FEF703FE174B83420BD0190020004C
:10333000FEF716FE01212000FEF7E8FD0123A34061
:10334000114A1360A400114BE550BFF35F8F0C4B83
:1033500000221A6086F3108870BDA2000B4B00217A
:10336000D1500122A2400A490B7893430B700549C2
:103370002000FEF739FF00212000FEF7C7FDE4E73B
:10338000280100D0D531001038600540001D002014
:103390000A260020F0B5DE4600B584B00400150012
:1033A00001921E000293FFF769FF03958E4202D837
:1033B0004ED185424CD9EFF3108B72B6274B1B6868
:1033C000002BFBD0BFF35F8F254A17780125A5405E
:1033D000EBB23B431370234B5D63221D92000199B6
:1033E000D150A2002049029850501B6A2B4212D1A2
:1033F0001C4B1B6C2B4208D00020BFF35F8F174B78
:1034000000221A608BF3108823E0184B184AC5215C
:10341000184800F0A1FDFFF731FF8E4214D802D109
:10342000039B834210D80E4B1B78BB420ED00D4B32
:103430001D625D631F2004400123A3400E4A1360F8
:10344000074B1F701E38D8E70020D6E70120D4E7CD
:10345000012004B080BCBB46F0BDC046280100D0AE
:103460000A26002000400540C825002088AD001035
:103470000CAE0010ACAD001080E200E0EFF3108C59
:1034800072B60B4B1B68002BFBD0BFF35F8F012381
:103490008340084A136208490A789A430A70BFF3C6
:1034A0005F8F034B00221A608CF310887047C04670
:1034B000280100D0004005400A26002010B5002950
:1034C0001ED0037B99421BD84B005B18033B04685A
:1034D000A4466344002919D0002A1DD0914221D06E
:1034E000002A25D0047BA24222D80468500080180C
:1034F000033820188170197800291FD11A7010BD67
:10350000104B114A6821114800F026FD104B114A5A
:103510006F310E4800F020FD0F4B0E4A70210B4812
:1035200000F01AFD0D4B0B4A7121084800F014FD04
:10353000044B054A6821054800F00EFD41701A70E1
:10354000DDE7C0465CAA001048AF001078AA001062
:10355000E0AA001034AF0010ECAA0010F8AA001086
:1035600070B506000D001400002914D0002A14D0F4
:10357000806873689847002806D022002900300030
:10358000FFF79CFF280007E02A0021003000FFF72A
:1035900095FF200000E0100070BD0800FCE700006F
:1035A00010B50023437301338373037BC37301237B
:1035B000027B9A4214D9002B0CD0027B934209D88B
:1035C0005A00D218033A01688C4662440133DBB2D8
:1035D0005370EDE70B4B0C4A68210C4800F0BCFC23
:1035E000002A09D0924207D8016853009A18033A7A
:1035F0008A180023537010BD024B034A6821034808
:1036000000F0AAFC5CAA001048AF001078AA0010D5
:1036100010B5017342608360FFF7C2FF10BDF8B5BB
:1036200005000E0017001021012003F0C3F804006C
:103630000321280003F0BEF820603B00320029007F
:103640002000FFF7E5FF2000F8BD000070B5040082
:10365000081E00D170BD002934D0237B994231D897
:103660004B005B18033B2268944663445A78002A57
:10367000F0D02DD0237B9A422AD853009B18033BCD
:1036800021688C4663445D7800215970002825D05C
:10369000237B984222D843001B18033B21688C46A9
:1036A00063440021597001002000FFF759FF060014
:1036B00029002000FFF7CAFF020031002000FFF7B9
:1036C0004FFFC7E7084B094A6821094800F044FC4E
:1036D000054B064A6821064800F03EFC024B034AAF
:1036E0006821034800F038FC5CAA001048AF0010C5
:1036F00078AA001070B505000C00160000292FD024
:1037000034D0037B994231D84B005B18033B0268ED
:10371000944663445A78002A2ED19A78002A31D1EF
:103720001978FFF793FF0300002E0AD0EA7B002AE6
:103730002ED1AA7B002A03D1EA7B002A3BD1AC73AD
:10374000EC73002B3DD1002C4FD02B7B9C424CD8EE
:103750002B6861000C19033C1C190023637070BDB9
:10376000254B264A3821264800F0F6FB254B264AF1
:103770006821264800F0F0FB254B204A3A212048DA
:1037800000F0EAFB234B1D4A3B211D4800F0E4FBFF
:10379000002A0AD0297B8A4207D851008A18033AA6
:1037A00029688C4662445470C3E7164B164A682158
:1037B000164800F0D1FB184B104A4221104800F087
:1037C000CBFB002B0BD02A7B934208D843001B185D
:1037D000033B2A689446634400229A70B3E7094B7E
:1037E000094A6821094800F0B7FB064B064A6821E0
:1037F000064800F0B1FBC04640AE001020AF0010FC
:1038000048AE00105CAA001048AF001078AA001063
:103810009CAE0010C4AE0010BCAB001070B504002C
:103820000A00457B2900FFF765FF6073280070BD23
:1038300070B50400002967D0437B8B420ED000296D
:1038400011D0037B99420ED84B005B18033B0268F2
:10385000D0188378002B0CD1002056E00121FFF70F
:10386000DDFF012051E0294B294A6821294800F059
:1038700073FB002B20D0227B93421DD85A00D31813
:10388000033B2268D2182568EB5C8B421AD0002BD0
:103890001BD0227B934218D85A00D318033B2268CE
:1038A000D21853788B4216D0002BF0D11A4B1B4AFA
:1038B0006B211B4800F050FB144B154A682115483A
:1038C00000F04AFB4378137007E0104B104A682160
:1038D000104800F041FB437853700023837043701D
:1038E00001222000FFF706FF0200617B814205D024
:1038F0002000FFF735FE6073012006E0094B074A00
:103900007121074800F028FB002070BD5CAA001060
:1039100048AF001078AA0010B0A7001008AF001040
:1039200048AE0010E8AE001070B5046BE30701D498
:10393000200070BD02003032C0239B0113430A4AAD
:103940001A60456A826AAD01AD18AD02062000F02A
:10395000C5F9064901F0AEFC0100280001F0AAFCFF
:103960000021FFF7ABFCE3E7010300004E0E00006F
:1039700070B504000E001500FFF7D6FF22002C32B0
:10398000E16A4E40354080235B0113431D60206394
:1039900070BD000070B505000C00062000F09EF917
:1039A000C000210001F086FCC60908D00E4B9E42E3
:1039B00016D87F23184001303400460800E0012467
:1039C0006C62AE62002200212800FFF7D1FF0620C2
:1039D00000F084F98000A101891901F06BFC70BD31
:1039E0000026024CECE7C046FEFF0000FFFF00008F
:1039F00010B505394901013AD2001143002B09D015
:103A000002220A43012B07D0002111436E22FFF747
:103A1000AFFF10BD0022F4E70421F6E710B500293E
:103A200000D010211022FFF7A3FF10BD002909D0FC
:103A30000A22064B9C466044434258414000044BD6
:103A4000C252704780225200F3E7C0460080FCBF9C
:103A5000D825002070B505000C00062000F03EF9C6
:103A6000061E27D0164B9D4226D08022D203154B2E
:103A70001A60154B1A60154B9B6811009943FAD1D7
:103A800000212800FFF7D2FF21002800FFF782FF66
:103A900006000023012208212800FFF7A9FF2A00C1
:103AA0002C3280239B01134310221A60084B2B6396
:103AB0000323AB64300070BD80221204D7E7C046F8
:103AC0000080034000E0004000F0004000C00040E3
:103AD00001030000F8B5DE4657464E464546E0B5C0
:103AE00005000F0092460A9A934250D31A0E91464F
:103AF0001E020A9A00233000494601F019FC804654
:103B00006C006419A400304B9C4664446368834293
:103B100000D260602B1FDBB29B46012B3DD9C02336
:103B20009B012343802212011A60AB00274A995857
:103B3000002907D0506901F0BDFB431C5800C01894
:103B40000338FDD253465A0123685A40E0231A40F5
:103B500080235B0123431A605A46012A28D9802317
:103B60009B012343802212011A6043466360424650
:103B700000233000494601F0DBFBAD00134B5851E8
:103B80000120F0BCBB46B246A946A046F8BD104B8A
:103B9000104A3321104800F0DFF9012FBFD1C023B4
:103BA0009B01234303221A60A368DB07FCD5C9E706
:103BB0002168794003220A401A60A2680123BB40B1
:103BC0001342FAD0CBE7C04600800040C41E00205C
:103BD00054AF0010C8AF001068AF001030B583B00C
:103BE0000C2000F011F9FEF78DF800280DD000230D
:103BF00004E099002D4A2E4888500133092BF8D94A
:103C00002A4B2C4A5A6203B030BD2B4B00229A67D4
:103C100000F06CF9294B01221A60274B5B6C012BD9
:103C2000FBD1274B03221A60234B9B6B012BFBD14B
:103C3000013300930433234A0121234800F054F850
:103C400005230093214A0121214800F04DF8214B22
:103C50000093002202210420FFF73CFF1E4D009537
:103C60002B00002201210520FFF734FF104C0094A7
:103C70002300002200210720FFF72CFF00942300DF
:103C8000002200210820FFF725FF0A4B00932300A4
:103C9000002200210920FFF71DFF00952B000022C4
:103CA00000210620FFF716FFADE7C046C41E002026
:103CB000006CDC021BB70000008000403CB00040FC
:103CC00030B00040002F685900800240008C8647C9
:103CD00000C00240001BB700405973078000014B31
:103CE000C0587047C41E0020F0B5C64600B5040099
:103CF0000E0017001D00374801F0DCFA8046364BF5
:103D0000FA18364B9A4239D80100380001F0D2FA3D
:103D10000200103A98235B009A4235D86B1E062B9E
:103D200038D8069B013B062B34D83F09474537D38B
:103D30002D04069B1A0315432368002B36DB284B02
:103D40009C4244D080225201264B1A60264B1A60B6
:103D5000264B9B6811009943FAD12660A060231D71
:103D6000C02292011A43212313602368002BFCDA3E
:103D7000E5600823136080BCB846F0BD1C4B1D4AAB
:103D800011211D4800F0E8F81C4B1A4A19211A4865
:103D900000F0E2F81A4B174A1C21174800F0DCF833
:103DA000184B144A2321144800F0D6F822683F2308
:103DB0001340B342C3D1A3681B051B0D8342BED180
:103DC000E368EE22D2021340AB42B8D1D3E780229F
:103DD0009201B9E7001BB70080E84BD380F8A93205
:103DE00000C0024000E0004000F0004000C0004081
:103DF000D8AF001018B1001038B0001094B0001007
:103E0000B0B00010FCB0001080239B000343014AB7
:103E1000D362704700800540024B1A68024B5A601B
:103E20007047C046702300200080054010B5020096
:103E3000164B8020C0051860154B164818600029E5
:103E40000AD0154BE021C9041960002A09D1124B90
:103E5000802212061A6010BD0C4BE021C9041960C3
:103E6000F3E753019B1A9800801800010B4B186070
:103E700080235B04984202D3084B094A1A60FFF77B
:103E8000CBFF054B8022D2051A60E4E700B0054065
:103E900008200140FCFF010000A005407023002025
:103EA000FFFFFF0010B5030010000C4A8024E4055A
:103EB0001460002B0DD001221343094A094CD46130
:103EC000094C5C401462516293620021FFF7AEFF1F
:103ED00010BD034B0022DA61F7E7C04600B0054091
:103EE00000800540D3C007B02D3FF84F064BAA22F3
:103EF00012011A602F22DA60044B054A1A60024B45
:103F00005B68002BFBDA7047004002400060024013
:103F100000B0FA0000BEFDE703000A4A1268002A5A
:103F200008D0084A1068C318074A9A4206D3054ABF
:103F300013607047034A05491160F2E701204042CF
:103F4000F7E7C0466C1F0020000004201026002068
:103F500010B5FFF7DFFF000010B582B00C001900AC
:103F6000002A0CD0084B002A0BD0019200932300AA
:103F70000200064802F0A4FD0120FFF7CBFF044B2E
:103F8000F1E7034AF1E7C04624B1001034B1001054
:103F900040A5001070B52B4B2B4A1A602B4B2C4AB6
:103FA0001A602C4B9A682A4B9343FAD12A4C01E0B1
:103FB00008CC9847294B9C42FAD3FFF70FFE234BBE
:103FC000274A1A60234B9B68DB43DB01FAD1254B60
:103FD00040229A675A671A67DA66234C09E0234B36
:103FE000234A87212348FFF7B7FF2000FEF774FA22
:103FF0000834214B9C4209D22368002BF5D0012BB9
:10400000EDD12000FEF775FA0834F2E71B4CA168E9
:104010001B4DC022280002F0FBFBA560EFF30583D7
:10402000002B00D000BEFDF7CFFEFEF72BFAFEF707
:10403000E3FD144C01E008CC9847134B9C42FAD3A3
:1040400070BDC04600E00040BFCDFBFE00F0004068
:10405000FE7F3C0000C0004088160020981600201B
:10406000FFFFFF0100F001407816002064B100104E
:10407000F4B1001084B100108816002000ED00E0BB
:104080000000002098160020A01600200FB400B5F4
:1040900083B0084802F0E4FC049B002B07D005A97C
:1040A0000191180002F0ECFC034802F0D9FC012059
:1040B000FFF730FFE4B1001020A50010704710B5E5
:1040C000002802D00B684968984710BD0100002005
:1040D00007E083001B185B00501C08601078C018B4
:1040E00030380A681378303BDBB2092BF1D97047BE
:1040F000F0B5DE4657464E464546E0B583B093469A
:104100001F000C9B9A460D9C0E9B99460F9B9B078C
:1041100003D0B8460F00060022E00192A34688466D
:104120004E46B9460700B44207D2551C4B4641469D
:104130002020B84701342A00F5E73D004F465C4691
:10414000019B9B46B1464646B84637002E0007E025
:10415000013C551C5346185D43463900B0472A00C0
:10416000002CF5D135003E0047460F9B9B0707D436
:10417000100003B0F0BCBB46B246A946A046F0BD55
:10418000B0464E46B9462F005D46531BB342EFD2B0
:10419000541C4B4641462020B8472200F5E7F0B5B5
:1041A000CE46474680B585B0944698460C9D0D9CFA
:1041B0000EAB1B789946109A119B129EB7071CD420
:1041C000002B0CD0F7070AD54F46002F02D10C3731
:1041D000374204D0013B02E030272F55013494428E
:1041E00001D21F2CF8D9F70707D59C4205D21F2C06
:1041F00003D830272F550134F5E7F70615D5770595
:1042000005D4002C03D0944224D09C4222D00F9A93
:10421000102A2BD00F9A102A30D00F9A022A35D0AC
:104220001F2C02D830222A5501341F2C05D84A46AB
:10423000002A31D02D222A5501340396029301948D
:10424000009543466246FFF753FF05B0C0BCB94630
:10425000B046F0BD621E012C06D00F9F102F01D07A
:104260001400D4E7023CD2E71400D0E7B206D1D460
:104270001F2CCFD878222A550134D1E7B206CCD5ED
:104280001F2CCAD858222A550134C9E71F2CC7D879
:1042900060322A550134C3E7720703D52B222A5511
:1042A0000134CAE73207C8D520222A550134C4E7B1
:1042B000F0B5DE4657464E464546E0B593B08146DA
:1042C0008A46089209931CAB10CB1B789B461E9D17
:1042D000219B9846002C03D1102342469A439046D6
:1042E0008023DB0046461E4042461A4212D0002C74
:1042F00022D000260EE03033D9B2771C0AAB995594
:104300002900200000F0D6FFAC4216D31F2F14D88E
:104310003E0004002900200000F0CCFFCBB2092BA6
:10432000E9D94246920605D54121C918C9B20A39D0
:10433000C9B2E2E76121F8E7270043460693209BD4
:1043400005931F9B049303955B46029301970AAB69
:104350000093099B089A51464846FFF720FF13B087
:10436000F0BCBB46B246A946A046F0BDF0B5DE465D
:1043700057464E464546E0B595B0089009910A92D9
:104380000B931E9E1F9C20AB1B789B46229B99463D
:10439000239D269B9A463300234303D11033524674
:1043A0009A4392468023DB0057461F4052461A42EA
:1043B00019D0330023432DD0002714E03033DAB274
:1043C0007B1C98460CABDA554A462B003000210086
:1043D00000F0AEFFA5421FD819D043461F2B1BD8B3
:1043E000474606000C004A462B003000210000F032
:1043F0009FFFD3B2092BE1D95246920605D541223F
:10440000D218D2B20A3AD2B2DAE76122F8E7B1455D
:10441000E3D901E00023984653460693259B059374
:10442000249B04934B4603935B46029343460193BC
:104430000CAB00930B9B0A9A09990898FFF7AFFE03
:1044400015B0F0BCBB46B246A946A046F0BD000080
:10445000F0B5DE4657464E464546E0B591B0834638
:104460008A460C9298461A9C08941B9D0995220036
:104470002B002000290001F0E6F9002800D0E5E03B
:1044800001225242D74B2000290001F0D7F9002821
:1044900000D0DBE001225242D34B2000290001F082
:1044A000B7F9002800D0D1E000220023089E300098
:1044B000099D290001F0ACF9002800D0DDE0089842
:1044C0000999069007918023DB001E9A1A400D92ED
:1044D0001E9A1A4201D106231C93069807990400DC
:1044E0000D000A000600024300D1D1E0080D40058E
:1044F000400DBE4CA44660440A03120BBC4B134350
:104500001F0001F0B3F9BB4ABB4B01F03EF9BB4AB7
:10451000BB4B01F013F904000D000022B94B300031
:10452000390001F002F9B84AB84B01F02EF9020047
:104530000B002000290001F001F901F0AFF98146DC
:1045400001F094F904000D00B14AB24B01F01DF9DD
:104550000022B14B01F0F2F801F0A0F90600AF4AD9
:10456000AF4B2000290001F010F904000D003000CD
:1045700001F07CF9AB4AAC4B01F007F902000B00EB
:104580002000290001F0D1F804000D0002000B000A
:1045900001F0FBF80A900B91A44BF31800261F05BD
:1045A00022002B002000290001F0C8F80E900F9186
:1045B00022002B0000208021C90501F0B6F804007C
:1045C0000D0000229A4B0A980B9901F0C0F80022C6
:1045D000984B01F0B3F802000B000A980B9901F018
:1045E000B6F80022944B01F0A9F802000B000A98DB
:1045F0000B9901F0ACF802000B002000290001F03B
:104600009DF802000B000E980F9901F0A0F800220F
:10461000774B01F093F832003B0001F0B6F806004A
:104620000F0004000D00069A079B01F007F900280F
:1046300030D001235B429C46E14400227D4B300098
:10464000390001F084F804000D0023E01E9B049360
:104650001D9B03931C9B0293089A099B0092019354
:1046600043460C9A5146584600F0FCF811B0F0BC95
:10467000BB46B246A946A046F0BD002300240693DF
:104680000794069680231B069C46654407951AE707
:10469000002399464B466333C62B1ED804261E9B27
:1046A0001B0526D52B0023430FD0644A644B069884
:1046B000079901F0BBF8002879D00022614B0698D9
:1046C000079901F0A5F8002871D01C9B4B4506DD29
:1046D0004A46981A431E1C9303E00526DFE7002391
:1046E0001C938023DB001E9A1A431E92002600238F
:1046F00099461D9B9E4264D29F1B02231E9A1A401C
:104700000A921E9A134202D0002E00D000274B4678
:10471000002B07D022002B000698079901F017F80C
:1047200006900791002200230898099901F070F87B
:10473000002848D1444B1E9A1340049303971C9BB6
:104740000293069B079C0093019443460C9A5146A2
:10475000584600F087F8002E00D187E71E9B9B0685
:104760003DD54525441C4346020051462800D84704
:104770004B46DA179B18534005220592013E0496DA
:10478000002203920A3202924A46D00F019000930F
:104790004346220051465846FFF78AFD0A9B002BEC
:1047A00000D163E702005F460C9E1D9D54E01C9BF8
:1047B000002B9ED00D9B002B9BD01C9B013B1C9380
:1047C00097E7002799E7069C079D22002900802093
:1047D0000006844661440B0006920793AAE765250C
:1047E000C0E7C046FFFFEF7FFFFFEFFF01FCFFFFC9
:1047F0000000F03FFB799F501344D33FB3C8608B58
:10480000288AC63F0000F83F61436F63A787D23F05
:1048100071A379094F930A400000E03F1655B5BBDC
:10482000B16B0240EF39FAFE422EE63FFF03000073
:1048300000002C4000002440000018402D431CEBD9
:10484000E2361A3F80842E41FFF7FFFF541C434697
:1048500051462020B8472200931BAB42F6D31000EC
:1048600004E7C046F0B5DE4657464E464546E0B53D
:1048700095B00690079193469946209F1E9A1F9BDC
:104880001000190000F0DFFF002831D10122524250
:10489000BF4B1E981F9900F0BBFF002837D10122A3
:1048A0005242BC4B1E981F9900F0C8FF00283DD112
:1048B0000022B94B1E981F9900F0C0FF002850D16C
:1048C0000022B64B1E981F9900F0A2FF002848D185
:1048D000002200231E981F9900F09AFF002850D153
:1048E00000239846229B5B0500D4B6E0002458E0E4
:1048F000229B0393219B029303230193A84B0093D4
:104900004B465A4607990698FFF7F2FB0EE1229BA9
:104910000393219B029304230193A24B00934B46E4
:104920005A4607990698FFF7E3FBFFE00423229A13
:104930001A4022990B4210D09B4B002A0FD0042220
:104940002299039121990291019200934B465A4674
:1049500007990698FFF7CCFBE8E0944BEDE70322BC
:10496000EEE7229B0493219B039302971E9B1F9CBF
:10497000009301944B465A4607990698FFF768FD45
:10498000D4E01E9A1F9B0020002100F0CEFE1E9056
:104990001F9101239846A5E70CAB30221A55013F21
:1049A00001341F2C01D8092FF6D81E981F9900F04A
:1049B00075FF050000F05AFF02000B001E981F99BA
:1049C00000F0B3FEFA007A4B9B181A685B680A92F3
:1049D0000B9300F0DAFE0890099100F083FF0600C7
:1049E00000F040FF02000B000898099900F09DFEBE
:1049F0000890099100226F4B00F020FF00282ED074
:104A00000136300000F02EFF02000B000A980B99CF
:104A100000F004FF002801D001350026002F2CD122
:104A2000280000F023FF02000B001E981F9900F0E1
:104A30007CFE06000F0000225E4B00F0E9FE00281D
:104A400046D100225B4B3000390000F0F7FE002811
:104A50003ED1EB073CD501353AE0062746E7002278
:104A6000544B0898099900F0D3FE0028D6D1002EA7
:104A700001D0F307D2D50136D0E7AA461F2C11D8B2
:104A8000013F0A21300000F015FC651C30310CABF1
:104A900019550A21300000F00DFC092E0ED9060030
:104AA0002C00EBE755461F2C0CD87B1E002F09D09D
:104AB0000CAA302111551F000134F4E72B00554694
:104AC0001C00F0E71F2C03D80CAB2E221A55013422
:104AD0001F2C10D80A21280000F0C4FB661C3031BE
:104AE0000CAB19550A21280000F0BCFB051E01D0B3
:104AF0003400EDE734000323229A1340012B1CD02D
:104B00001F2C06D84346002B32D00CAB2D221A5551
:104B10000134229B0393219B029301940CAB0093DD
:104B20004B465A4607990698FFF7E2FA15B0F0BCD3
:104B3000BB46B246A946A046F0BD219B002B13D030
:104B40004346002B02D10C3313420FD0219B013B73
:104B50002193190003E00CAB30221A5501348C422A
:104B6000CED21F2CF7D9CBE72199F8E72199F6E7A8
:104B7000229B5B0704D50CAB2B221A550134C8E7E6
:104B8000229B1B07C5D50CAB20221A550134C0E768
:104B9000FFFFEFFFFFFFEF7F65CDCD4165CDCDC1BD
:104BA00010B2001014B2001008B2001004B20010CD
:104BB00000B400100000E03FF0B5DE4657464E4618
:104BC0004546E0B593B082468B4690461193002946
:104BD00000D1EBE200275546119B1878002800D140
:104BE000E7E2252809D07C1C43463A005946A847ED
:104BF000119B013311932700EEE701331193002439
:104C0000119A11780B00203BD8B2102803D88300EA
:104C1000D048C3589F460B00303BDBB2092B2CD940
:104C20002A292FD000230A93119B1A782E2A39D0D3
:104C300000239A46119A1378683BD9B2122976D884
:104C40008B00C549CB589F4601231C43013211926A
:104C5000D6E702231C4301321192D1E704231C43FF
:104C600001321192CCE708231C4301321192C7E7AD
:104C700010231C4301321192C2E711A8FFF726FA54
:104C80000A90D1E71C9B1A1D1C921868002804DBAF
:104C90000A90119B01331193C6E702231C43434240
:104CA0000A93F6E78022D20014435A1C11925A78D4
:104CB0001300303BDBB2092B04D92A2A07D000238A
:104CC0009A46B7E711A8FFF701FA8246B2E71C9BA4
:104CD0001A1D1C921868002804DB8246119B0133C0
:104CE0001193A7E70020F8E780235B002343511CC2
:104CF000119152786C2A01D01C0018E0C0239B004F
:104D00001C430131119112E080232343511C119166
:104D10005278682A01D01C0009E0C0231C430131ED
:104D2000119104E080235B001C4301321192119B1E
:104D300018780300253BDAB2532A00D92CE29300FD
:104D4000864AD3589F4680239B001C430132119210
:104D5000EDE780235B001C4301321192E7E77828DE
:104D600009D0582838D06F2838D0622838D010237E
:104D70009C430A2600E01026582833D0692803D027
:104D8000642801D00C229443630501D50122944389
:104D900069282AD0642828D0A30500D59FE0E30520
:104DA00000D5B8E0630600D4CAE01C9A111D1C911E
:104DB0001168FF220A4005940A9B0493534603930B
:104DC000029600230193009243463A005946280078
:104DD000FFF76EFA070027E01026CDE70826CBE79D
:104DE0000226C9E720221443C8E7A30520D4E3051F
:104DF00050D4630666D51C9A111D1C911168FF22C0
:104E00000A40D317D118594005940A9B049353467E
:104E100003930296D20F0192009143463A005946FD
:104E20002800FFF745FA0700119B01331193D3E6E1
:104E30001C9BDA1D07218A43110008311C9111685F
:104E400053689C46DB170C930D930C9A0D9B100036
:104E500048400E90624653400F930E980F990C9A5B
:104E60000D9B801A99410E900F9108940A9B07930D
:104E7000534606930496002305936346DA0F029285
:104E80000090019143463A0059462800FFF76EFA18
:104E90000700C9E71C9A111D1C911268D317D1187D
:104EA000594005940A9B0493534603930296D20FEC
:104EB0000192009143463A0059462800FFF7F8F95D
:104EC0000700B1E7230605D51C9A111D1C9100238C
:104ED000D25E96E71C9A111D1C91126891E71C9BEB
:104EE000DA1D07218A43110008311C9108940A9B9E
:104EF0000793534606930496002305930293136881
:104F000054680093019443463A0059462800FFF73D
:104F10002DFA070088E71C9A111D1C9105940A9B25
:104F2000049353460393029600230193136800935E
:104F300043463A0059462800FFF7BAF9070073E7DD
:104F400023060DD51C9A111D1C9112681204120C17
:104F500031E7C0461CB2001060B20010ACB20010C5
:104F60001C9A111D1C91126825E746281AD01C9B1B
:104F70000733072293431A0008321C9204940A9ABA
:104F80000392524602925C681B6800930194434668
:104F90003A0059462800FFF765FC0700119B0133D2
:104FA000119319E620231C43E1E7672801D0472825
:104FB00002D180231B011C43452801D0472801D181
:104FC00020231C431C9B0733072293431A000832FB
:104FD0001C9204940A9A0392524602925C681B68DF
:104FE0000093019443463A0059462800FFF730FAEF
:104FF0000700119B01331193EEE502231A002240B2
:10500000924623421FD001241C9B1A1D1C927A1C1D
:105010009146187843463A005946A8475346002B14
:1050200016D1119B013311934F46D5E5561C4346CB
:1050300059462020B847230032005C1C9D42F5D819
:105040003D001700E0E701233A002F000A9DF4E736
:105050004A46A9460A9D06E0571C43465946202069
:10506000C84734003A00661CA542F5D84D46914623
:10507000D7E71C9B1A1D1C921B6899465346002BB0
:1050800000D1013B4E4601E0013613003278002A80
:1050900002D05A1E002BF7D14B46F21A10928023F1
:1050A000DB0026001E401C4203D0524501D9534666
:1050B000109302231A0022400B92234205D03A009B
:1050C00037004C46A946554620E03A00109B5F4603
:1050D000B3462E0006E0551C434639002020B04759
:1050E00023002A005C1C0A999942F4D835005E46D8
:1050F000BB46109437004C46A946554606E01D00B5
:105100000134561C43465946C847320020780028CF
:1051100004D0002FF4D06B1E002DF0D117004D46A7
:105120000B9B002B03D1119B0133119354E50A9F74
:10513000109B06E0561C434659462020A8472300F2
:1051400032005C1C9F42F5D81700ECE721231C437A
:105150001C9B1A1D1C921B68009305940823049342
:1051600053460393102302930023019343463A00CE
:1051700059462800FFF79CF80700119B0133119353
:105180002AE57C1C43463A0059462520A847119B36
:105190000133119327001FE57C1C43463A00594612
:1051A000A847119B01331193270015E50A4B9A4636
:1051B00010E5AA46474502D343465A1E00E03A008E
:1051C000434659460020D047380013B0F0BCBB46D8
:1051D000B246A946A046F0BDBD40001000B585B05E
:1051E000029003910121009313004A4202A9024850
:1051F000FFF7E2FC05B000BDBF40001001480421EC
:10520000014B1847B00D00202D52001010B50100C1
:1052100018231B8814221088984710BD10B5010070
:1052200018231B8816221088984710BDF0B5C64673
:1052300000B507000E0000250123984600E0013567
:10524000B5420AD2AC003C192068FFF7DFFF2060AE
:105250000028F4D100239846F1E7404680BCB846C8
:10526000F0BD0000124A936F9B0815D29066D1667C
:10527000002905D0FFE7FFE7FFE7516F106F704788
:1052800004B580210906C2175140002800D0C84348
:1052900005F066F8002104BDF0B5146E556E576F29
:1052A000166FFFF7E3FF1466556657671667F0BD84
:1052B000000000D0114A936F9B0813D2106651660C
:1052C000002905D0FFE7FFE7FFE7516F106F704738
:1052D00004B5002801D00020C04305F041F80021AA
:1052E00004BDC046F0B5146E556E576F166FFFF7CC
:1052F000E5FF1466556657671667F0BD000000D0DD
:1053000094464A4A926F9208624601D228E0C0460B
:10531000F0B5464E346E756E776F366F00F020F83C
:105320009446424A14665566576716676246F0BD52
:1053300094463E4A926F9208624601D254E0C046BB
:10534000F0B53A4E346E756E776F366F00F04CF8EC
:105350009446364A14665566576716676246F0BD2E
:10536000002B24DB11D000293EDA00B5C9434042AE
:1053700000D1013100F038F8C943404200D1013179
:10538000DB43524200D1013300BD002AEBD100289B
:1053900001D1002905D00020C90FC90701D1C043A0
:1053A000410800B504F0D4FF0022002300BD00B581
:1053B00000290ADBDB43524200D1013300F014F82C
:1053C000C943404200D1013100BDC943404200D130
:1053D0000131DB43524200D1013300F005F8DB43D9
:1053E000524200D1013300BD002923D1002B18D136
:1053F000002A0CD0BC460D4F38667A660021002387
:10540000FFE7FFE7FFE77A6F386F674670470028CE
:1054100001D00748010000B504F09AFF00220023E4
:1054200000BD02000B00002000217047000000D0EA
:10543000FFFFFFFF002B00D0BFE0130C28D1002A94
:10544000E7D080B4114F39667A66FFE7FFE730B4E2
:10545000040C7B6F396F1B0423433B667A66FFE7BE
:10546000FFE7FFE7C04684B27B6F3D6F1B04234319
:105470003B667A66FFE7FFE7C04600232C042D0C4D
:105480007A6F386F00196941B0BC7047000000D0D6
:10549000F0B594460025140E01D112020835140F00
:1054A00001D112010435940F01D192000235D40FBD
:1054B00001D152000135D40B0134254F7C66254CB7
:1054C0003C660E0C93B2FFE7FFE7FFE73C6F6643D5
:1054D000360C7703BE467343DF0B5B04C01AB94139
:1054E000130C7343DB18C91ACE086643360CB64456
:1054F00093B273431F0F1B01C01AB941130C7343BE
:105500001F0B1B05C01AB941860D8F023E4366432F
:10551000360C092D24DB520A7243801A7703460A9F
:105520006643360C16235B1BDE40DF40BF19644622
:105530006643821B7046043506330100D940A840FB
:10554000C01900D30131A24206D20023F0BD0000F1
:10555000000000D0FFFFFFFF121B0130F3D3F1E783
:1055600009277F1BFE406446A2B27243801A00D214
:105570000139220C7243130C1204821A99410B0058
:105580007046043513370100F940A840801900D354
:105590000131002B02D1A2420AD2F0BD013000D36A
:1055A0000131121BFAD2013BF8D1A24200D2F0BD68
:1055B000013000D30131121BF7E7F0B51C0C00D00D
:1055C00080E00CB400251C0A04D11B02160E3343E4
:1055D000120208351C0B04D11B01160F33431201B4
:1055E00004359C0B04D19B00960F33439200023587
:1055F000DC0B02D192185B4101351C009718644105
:105600000134464F7C66464C3C660E0CFFE7FFE7D4
:10561000FFE7C0463C6F6643360C7703BE4697B241
:105620007743C01B00D20139C01B00D201399FB2A1
:105630007743C91BC91B170C77437E04FF0B801BE4
:10564000B941CE086643360C0C2D33DBB644120B41
:105650001F053A431B0B97B27743C01B00D2013999
:105660009FB27743C91B170C77433E043F0C801B46
:10567000B941860D8F023E43664329277F1BFE40BA
:105680000C3D7746AF40BF1930BCA2B2ABB27243FB
:105690007343801A9941220C7243130C1204801A2E
:1056A000994102000B000137001BA941F9D2781E75
:1056B0000021F0BD0C277F1BFE4077467F0BAF40DB
:1056C000FF19E0E700245D1C07D0144F7D663966A2
:1056D000FFE7FFE7FFE7FFE73C6F95B29EB2654348
:1056E0006643401BB141150C1E0C654366433604EE
:1056F0002F0C3E432D04401BB141994204D20200BD
:105700000B0020000021F0BD01D19042F7D3801A98
:10571000994101349942F2D3F6E70000000000D02D
:10572000FFFFFFFF48404140484018B41B4B5B68F7
:10573000FC46019308BD04DF475A001018B4174B0C
:105740001B68FC46019308BD00DF515A00109446C7
:10575000134A926F920809D2624618B40F4BDB6865
:10576000FC46019308BD0CDF095D00100C4AF0B542
:10577000146E556E576F166F6246FFF7EEFF084ABC
:105780001466556657671667F0BD18B4034B9B68DF
:10579000FC46019308BD08DFAD5B0010B423002078
:1057A000000000D0FFB550404240504059404B40AF
:1057B000594000E0FFB5154F4C00640D03D0BC42CA
:1057C00004D10C0314D80020090D09055C00640DF8
:1057D00003D0BC4204D11C030AD800221B0D1B05B8
:1057E00001264B4009D44B4003D58B4200D1824265
:1057F000FFBD9942FCD19042FFBD0B43DB18034330
:105800001343F5D0C9434918FFBD0000FF0700004E
:1058100000B5FFF7CFFF804100BDC04600B5FFF7E0
:10582000C9FF01D9002000BD012000BD00B5FFF770
:10583000B9FF01D9002000BD012000BD00B5FFF770
:10584000B1FF804100BD012040054A00121804D874
:105850005A00121801D8002070470120704700201C
:10586000704700000021002805D17047C11748404B
:10587000401AFAD0C90713B5064B1B6898470CBCF1
:10588000441CA2401005120B0349091B09051943CA
:10589000114310BDB82400201F04000010B54C00B7
:1058A000620D8023D218DB00D21A5B057E2A10DD40
:1058B0009E3A13DACC170903490819435242D140E2
:1058C000640001341532202A05DAD04008436043D1
:1058D00010BD002010BD0846604310BDC80FC018A1
:1058E000013810BD18B4044B5B6AFC46019308BD37
:1058F00024DFB95E00100000B423002018B4044B6C
:105900005B6EFC46019308BD64DFA55F00100000DC
:10591000B423002018B4044BDB6FFC46019308BD90
:105920007CDF395F00100000B423002018B4044B62
:10593000DB6CFC46019308BD4CDFE5600010000005
:10594000B423002070B513231C78012C14D0012C33
:1059500014DC022C02DC1F4A1F4B9A641F48FFF71D
:1059600055FC1F4B186070BD99001A481A4A8850A0
:1059700001331F2BF8D9EAE70023FAE71948FFF7AC
:105980004DFC05001848FFF749FC023803789B00DE
:105990007F2B19DD802229000F4800F039FF022CEF
:1059A000D7D1124B1A88B5231B029A4209D1104B4A
:1059B0001A88104B9A4204D10F4B1A880F4B9A4207
:1059C000C7D00020FEF762FB0D4B0E4A32210E4875
:1059D000FEF7C2FA0D5A0010B42300204C33000029
:1059E000B8240020534400005346000054380000FF
:1059F000D8380000494600009C3800005946000095
:105A000050B4001008B50010A4B4001007B56046EB
:105A1000002800D100BE01880A0A0230DF2AFAD12C
:105A2000C9B2820804D3028840880004104300E011
:105A30000068024A5050039007BD0000B4230020C4
:105A40000FB403BC0CBCF0B50124E407634000E0D4
:105A5000F0B50C0DCF0F661E3605891B640503D308
:105A6000C943404200D30131640D03D0661CF60ADD
:105A700007D0E41B00207F00791C89078912803C35
:105A800024031D0DDF0F6E1E36059B1B6D0503D312
:105A9000DB43524200D301336D0D03D06E1CF60A76
:105AA00007D0ED1B00227F007B1C9B079B12803DD3
:105AB0002D032F1B661B58D4A446202E46DA203710
:105AC0001400BC401D00BD40F24033412A43801801
:105AD0005941CB0F05D0C943C04300226442504115
